{
  "_format": "hh-sol-artifact-1",
  "contractName": "GovernorContract",
  "sourceName": "contracts/governance-standard/GovernorContract.sol",
  "abi": [
    {
      "inputs": [
        {
          "internalType": "contract TimelockController",
          "name": "_timelock",
          "type": "address"
        },
        {
          "internalType": "contract IVotes",
          "name": "_token",
          "type": "address"
        },
        {
          "internalType": "uint256",
          "name": "_initialVotingDelay",
          "type": "uint256"
        },
        {
          "internalType": "uint256",
          "name": "_initialVotingPeriod",
          "type": "uint256"
        },
        {
          "internalType": "uint256",
          "name": "_quorumPercentage",
          "type": "uint256"
        }
      ],
      "stateMutability": "nonpayable",
      "type": "constructor"
    },
    {
      "inputs": [],
      "name": "Empty",
      "type": "error"
    },
    {
      "anonymous": false,
      "inputs": [
        {
          "indexed": false,
          "internalType": "uint256",
          "name": "proposalId",
          "type": "uint256"
        }
      ],
      "name": "ProposalCanceled",
      "type": "event"
    },
    {
      "anonymous": false,
      "inputs": [
        {
          "indexed": false,
          "internalType": "uint256",
          "name": "proposalId",
          "type": "uint256"
        },
        {
          "indexed": false,
          "internalType": "address",
          "name": "proposer",
          "type": "address"
        },
        {
          "indexed": false,
          "internalType": "address[]",
          "name": "targets",
          "type": "address[]"
        },
        {
          "indexed": false,
          "internalType": "uint256[]",
          "name": "values",
          "type": "uint256[]"
        },
        {
          "indexed": false,
          "internalType": "string[]",
          "name": "signatures",
          "type": "string[]"
        },
        {
          "indexed": false,
          "internalType": "bytes[]",
          "name": "calldatas",
          "type": "bytes[]"
        },
        {
          "indexed": false,
          "internalType": "uint256",
          "name": "startBlock",
          "type": "uint256"
        },
        {
          "indexed": false,
          "internalType": "uint256",
          "name": "endBlock",
          "type": "uint256"
        },
        {
          "indexed": false,
          "internalType": "string",
          "name": "description",
          "type": "string"
        }
      ],
      "name": "ProposalCreated",
      "type": "event"
    },
    {
      "anonymous": false,
      "inputs": [
        {
          "indexed": false,
          "internalType": "uint256",
          "name": "proposalId",
          "type": "uint256"
        }
      ],
      "name": "ProposalExecuted",
      "type": "event"
    },
    {
      "anonymous": false,
      "inputs": [
        {
          "indexed": false,
          "internalType": "uint256",
          "name": "proposalId",
          "type": "uint256"
        },
        {
          "indexed": false,
          "internalType": "uint256",
          "name": "eta",
          "type": "uint256"
        }
      ],
      "name": "ProposalQueued",
      "type": "event"
    },
    {
      "anonymous": false,
      "inputs": [
        {
          "indexed": false,
          "internalType": "uint256",
          "name": "oldProposalThreshold",
          "type": "uint256"
        },
        {
          "indexed": false,
          "internalType": "uint256",
          "name": "newProposalThreshold",
          "type": "uint256"
        }
      ],
      "name": "ProposalThresholdSet",
      "type": "event"
    },
    {
      "anonymous": false,
      "inputs": [
        {
          "indexed": false,
          "internalType": "uint256",
          "name": "oldQuorumNumerator",
          "type": "uint256"
        },
        {
          "indexed": false,
          "internalType": "uint256",
          "name": "newQuorumNumerator",
          "type": "uint256"
        }
      ],
      "name": "QuorumNumeratorUpdated",
      "type": "event"
    },
    {
      "anonymous": false,
      "inputs": [
        {
          "indexed": false,
          "internalType": "address",
          "name": "oldTimelock",
          "type": "address"
        },
        {
          "indexed": false,
          "internalType": "address",
          "name": "newTimelock",
          "type": "address"
        }
      ],
      "name": "TimelockChange",
      "type": "event"
    },
    {
      "anonymous": false,
      "inputs": [
        {
          "indexed": true,
          "internalType": "address",
          "name": "voter",
          "type": "address"
        },
        {
          "indexed": false,
          "internalType": "uint256",
          "name": "proposalId",
          "type": "uint256"
        },
        {
          "indexed": false,
          "internalType": "uint8",
          "name": "support",
          "type": "uint8"
        },
        {
          "indexed": false,
          "internalType": "uint256",
          "name": "weight",
          "type": "uint256"
        },
        {
          "indexed": false,
          "internalType": "string",
          "name": "reason",
          "type": "string"
        }
      ],
      "name": "VoteCast",
      "type": "event"
    },
    {
      "anonymous": false,
      "inputs": [
        {
          "indexed": true,
          "internalType": "address",
          "name": "voter",
          "type": "address"
        },
        {
          "indexed": false,
          "internalType": "uint256",
          "name": "proposalId",
          "type": "uint256"
        },
        {
          "indexed": false,
          "internalType": "uint8",
          "name": "support",
          "type": "uint8"
        },
        {
          "indexed": false,
          "internalType": "uint256",
          "name": "weight",
          "type": "uint256"
        },
        {
          "indexed": false,
          "internalType": "string",
          "name": "reason",
          "type": "string"
        },
        {
          "indexed": false,
          "internalType": "bytes",
          "name": "params",
          "type": "bytes"
        }
      ],
      "name": "VoteCastWithParams",
      "type": "event"
    },
    {
      "anonymous": false,
      "inputs": [
        {
          "indexed": false,
          "internalType": "uint256",
          "name": "oldVotingDelay",
          "type": "uint256"
        },
        {
          "indexed": false,
          "internalType": "uint256",
          "name": "newVotingDelay",
          "type": "uint256"
        }
      ],
      "name": "VotingDelaySet",
      "type": "event"
    },
    {
      "anonymous": false,
      "inputs": [
        {
          "indexed": false,
          "internalType": "uint256",
          "name": "oldVotingPeriod",
          "type": "uint256"
        },
        {
          "indexed": false,
          "internalType": "uint256",
          "name": "newVotingPeriod",
          "type": "uint256"
        }
      ],
      "name": "VotingPeriodSet",
      "type": "event"
    },
    {
      "inputs": [],
      "name": "BALLOT_TYPEHASH",
      "outputs": [
        {
          "internalType": "bytes32",
          "name": "",
          "type": "bytes32"
        }
      ],
      "stateMutability": "view",
      "type": "function"
    },
    {
      "inputs": [],
      "name": "COUNTING_MODE",
      "outputs": [
        {
          "internalType": "string",
          "name": "",
          "type": "string"
        }
      ],
      "stateMutability": "pure",
      "type": "function"
    },
    {
      "inputs": [],
      "name": "EXTENDED_BALLOT_TYPEHASH",
      "outputs": [
        {
          "internalType": "bytes32",
          "name": "",
          "type": "bytes32"
        }
      ],
      "stateMutability": "view",
      "type": "function"
    },
    {
      "inputs": [
        {
          "internalType": "uint256",
          "name": "proposalId",
          "type": "uint256"
        },
        {
          "internalType": "uint8",
          "name": "support",
          "type": "uint8"
        }
      ],
      "name": "castVote",
      "outputs": [
        {
          "internalType": "uint256",
          "name": "",
          "type": "uint256"
        }
      ],
      "stateMutability": "nonpayable",
      "type": "function"
    },
    {
      "inputs": [
        {
          "internalType": "uint256",
          "name": "proposalId",
          "type": "uint256"
        },
        {
          "internalType": "uint8",
          "name": "support",
          "type": "uint8"
        },
        {
          "internalType": "uint8",
          "name": "v",
          "type": "uint8"
        },
        {
          "internalType": "bytes32",
          "name": "r",
          "type": "bytes32"
        },
        {
          "internalType": "bytes32",
          "name": "s",
          "type": "bytes32"
        }
      ],
      "name": "castVoteBySig",
      "outputs": [
        {
          "internalType": "uint256",
          "name": "",
          "type": "uint256"
        }
      ],
      "stateMutability": "nonpayable",
      "type": "function"
    },
    {
      "inputs": [
        {
          "internalType": "uint256",
          "name": "proposalId",
          "type": "uint256"
        },
        {
          "internalType": "uint8",
          "name": "support",
          "type": "uint8"
        },
        {
          "internalType": "string",
          "name": "reason",
          "type": "string"
        }
      ],
      "name": "castVoteWithReason",
      "outputs": [
        {
          "internalType": "uint256",
          "name": "",
          "type": "uint256"
        }
      ],
      "stateMutability": "nonpayable",
      "type": "function"
    },
    {
      "inputs": [
        {
          "internalType": "uint256",
          "name": "proposalId",
          "type": "uint256"
        },
        {
          "internalType": "uint8",
          "name": "support",
          "type": "uint8"
        },
        {
          "internalType": "string",
          "name": "reason",
          "type": "string"
        },
        {
          "internalType": "bytes",
          "name": "params",
          "type": "bytes"
        }
      ],
      "name": "castVoteWithReasonAndParams",
      "outputs": [
        {
          "internalType": "uint256",
          "name": "",
          "type": "uint256"
        }
      ],
      "stateMutability": "nonpayable",
      "type": "function"
    },
    {
      "inputs": [
        {
          "internalType": "uint256",
          "name": "proposalId",
          "type": "uint256"
        },
        {
          "internalType": "uint8",
          "name": "support",
          "type": "uint8"
        },
        {
          "internalType": "string",
          "name": "reason",
          "type": "string"
        },
        {
          "internalType": "bytes",
          "name": "params",
          "type": "bytes"
        },
        {
          "internalType": "uint8",
          "name": "v",
          "type": "uint8"
        },
        {
          "internalType": "bytes32",
          "name": "r",
          "type": "bytes32"
        },
        {
          "internalType": "bytes32",
          "name": "s",
          "type": "bytes32"
        }
      ],
      "name": "castVoteWithReasonAndParamsBySig",
      "outputs": [
        {
          "internalType": "uint256",
          "name": "",
          "type": "uint256"
        }
      ],
      "stateMutability": "nonpayable",
      "type": "function"
    },
    {
      "inputs": [
        {
          "internalType": "address[]",
          "name": "targets",
          "type": "address[]"
        },
        {
          "internalType": "uint256[]",
          "name": "values",
          "type": "uint256[]"
        },
        {
          "internalType": "bytes[]",
          "name": "calldatas",
          "type": "bytes[]"
        },
        {
          "internalType": "bytes32",
          "name": "descriptionHash",
          "type": "bytes32"
        }
      ],
      "name": "execute",
      "outputs": [
        {
          "internalType": "uint256",
          "name": "",
          "type": "uint256"
        }
      ],
      "stateMutability": "payable",
      "type": "function"
    },
    {
      "inputs": [
        {
          "internalType": "address",
          "name": "account",
          "type": "address"
        },
        {
          "internalType": "uint256",
          "name": "blockNumber",
          "type": "uint256"
        }
      ],
      "name": "getVotes",
      "outputs": [
        {
          "internalType": "uint256",
          "name": "",
          "type": "uint256"
        }
      ],
      "stateMutability": "view",
      "type": "function"
    },
    {
      "inputs": [
        {
          "internalType": "address",
          "name": "account",
          "type": "address"
        },
        {
          "internalType": "uint256",
          "name": "blockNumber",
          "type": "uint256"
        },
        {
          "internalType": "bytes",
          "name": "params",
          "type": "bytes"
        }
      ],
      "name": "getVotesWithParams",
      "outputs": [
        {
          "internalType": "uint256",
          "name": "",
          "type": "uint256"
        }
      ],
      "stateMutability": "view",
      "type": "function"
    },
    {
      "inputs": [
        {
          "internalType": "uint256",
          "name": "proposalId",
          "type": "uint256"
        },
        {
          "internalType": "address",
          "name": "account",
          "type": "address"
        }
      ],
      "name": "hasVoted",
      "outputs": [
        {
          "internalType": "bool",
          "name": "",
          "type": "bool"
        }
      ],
      "stateMutability": "view",
      "type": "function"
    },
    {
      "inputs": [
        {
          "internalType": "address[]",
          "name": "targets",
          "type": "address[]"
        },
        {
          "internalType": "uint256[]",
          "name": "values",
          "type": "uint256[]"
        },
        {
          "internalType": "bytes[]",
          "name": "calldatas",
          "type": "bytes[]"
        },
        {
          "internalType": "bytes32",
          "name": "descriptionHash",
          "type": "bytes32"
        }
      ],
      "name": "hashProposal",
      "outputs": [
        {
          "internalType": "uint256",
          "name": "",
          "type": "uint256"
        }
      ],
      "stateMutability": "pure",
      "type": "function"
    },
    {
      "inputs": [],
      "name": "name",
      "outputs": [
        {
          "internalType": "string",
          "name": "",
          "type": "string"
        }
      ],
      "stateMutability": "view",
      "type": "function"
    },
    {
      "inputs": [
        {
          "internalType": "address",
          "name": "",
          "type": "address"
        },
        {
          "internalType": "address",
          "name": "",
          "type": "address"
        },
        {
          "internalType": "uint256[]",
          "name": "",
          "type": "uint256[]"
        },
        {
          "internalType": "uint256[]",
          "name": "",
          "type": "uint256[]"
        },
        {
          "internalType": "bytes",
          "name": "",
          "type": "bytes"
        }
      ],
      "name": "onERC1155BatchReceived",
      "outputs": [
        {
          "internalType": "bytes4",
          "name": "",
          "type": "bytes4"
        }
      ],
      "stateMutability": "nonpayable",
      "type": "function"
    },
    {
      "inputs": [
        {
          "internalType": "address",
          "name": "",
          "type": "address"
        },
        {
          "internalType": "address",
          "name": "",
          "type": "address"
        },
        {
          "internalType": "uint256",
          "name": "",
          "type": "uint256"
        },
        {
          "internalType": "uint256",
          "name": "",
          "type": "uint256"
        },
        {
          "internalType": "bytes",
          "name": "",
          "type": "bytes"
        }
      ],
      "name": "onERC1155Received",
      "outputs": [
        {
          "internalType": "bytes4",
          "name": "",
          "type": "bytes4"
        }
      ],
      "stateMutability": "nonpayable",
      "type": "function"
    },
    {
      "inputs": [
        {
          "internalType": "address",
          "name": "",
          "type": "address"
        },
        {
          "internalType": "address",
          "name": "",
          "type": "address"
        },
        {
          "internalType": "uint256",
          "name": "",
          "type": "uint256"
        },
        {
          "internalType": "bytes",
          "name": "",
          "type": "bytes"
        }
      ],
      "name": "onERC721Received",
      "outputs": [
        {
          "internalType": "bytes4",
          "name": "",
          "type": "bytes4"
        }
      ],
      "stateMutability": "nonpayable",
      "type": "function"
    },
    {
      "inputs": [
        {
          "internalType": "uint256",
          "name": "proposalId",
          "type": "uint256"
        }
      ],
      "name": "proposalDeadline",
      "outputs": [
        {
          "internalType": "uint256",
          "name": "",
          "type": "uint256"
        }
      ],
      "stateMutability": "view",
      "type": "function"
    },
    {
      "inputs": [
        {
          "internalType": "uint256",
          "name": "proposalId",
          "type": "uint256"
        }
      ],
      "name": "proposalEta",
      "outputs": [
        {
          "internalType": "uint256",
          "name": "",
          "type": "uint256"
        }
      ],
      "stateMutability": "view",
      "type": "function"
    },
    {
      "inputs": [
        {
          "internalType": "uint256",
          "name": "proposalId",
          "type": "uint256"
        }
      ],
      "name": "proposalSnapshot",
      "outputs": [
        {
          "internalType": "uint256",
          "name": "",
          "type": "uint256"
        }
      ],
      "stateMutability": "view",
      "type": "function"
    },
    {
      "inputs": [],
      "name": "proposalThreshold",
      "outputs": [
        {
          "internalType": "uint256",
          "name": "",
          "type": "uint256"
        }
      ],
      "stateMutability": "view",
      "type": "function"
    },
    {
      "inputs": [
        {
          "internalType": "uint256",
          "name": "proposalId",
          "type": "uint256"
        }
      ],
      "name": "proposalVotes",
      "outputs": [
        {
          "internalType": "uint256",
          "name": "againstVotes",
          "type": "uint256"
        },
        {
          "internalType": "uint256",
          "name": "forVotes",
          "type": "uint256"
        },
        {
          "internalType": "uint256",
          "name": "abstainVotes",
          "type": "uint256"
        }
      ],
      "stateMutability": "view",
      "type": "function"
    },
    {
      "inputs": [
        {
          "internalType": "address[]",
          "name": "targets",
          "type": "address[]"
        },
        {
          "internalType": "uint256[]",
          "name": "values",
          "type": "uint256[]"
        },
        {
          "internalType": "bytes[]",
          "name": "calldatas",
          "type": "bytes[]"
        },
        {
          "internalType": "string",
          "name": "description",
          "type": "string"
        }
      ],
      "name": "propose",
      "outputs": [
        {
          "internalType": "uint256",
          "name": "",
          "type": "uint256"
        }
      ],
      "stateMutability": "nonpayable",
      "type": "function"
    },
    {
      "inputs": [
        {
          "internalType": "address[]",
          "name": "targets",
          "type": "address[]"
        },
        {
          "internalType": "uint256[]",
          "name": "values",
          "type": "uint256[]"
        },
        {
          "internalType": "bytes[]",
          "name": "calldatas",
          "type": "bytes[]"
        },
        {
          "internalType": "bytes32",
          "name": "descriptionHash",
          "type": "bytes32"
        }
      ],
      "name": "queue",
      "outputs": [
        {
          "internalType": "uint256",
          "name": "",
          "type": "uint256"
        }
      ],
      "stateMutability": "nonpayable",
      "type": "function"
    },
    {
      "inputs": [
        {
          "internalType": "uint256",
          "name": "blockNumber",
          "type": "uint256"
        }
      ],
      "name": "quorum",
      "outputs": [
        {
          "internalType": "uint256",
          "name": "",
          "type": "uint256"
        }
      ],
      "stateMutability": "view",
      "type": "function"
    },
    {
      "inputs": [],
      "name": "quorumDenominator",
      "outputs": [
        {
          "internalType": "uint256",
          "name": "",
          "type": "uint256"
        }
      ],
      "stateMutability": "view",
      "type": "function"
    },
    {
      "inputs": [],
      "name": "quorumNumerator",
      "outputs": [
        {
          "internalType": "uint256",
          "name": "",
          "type": "uint256"
        }
      ],
      "stateMutability": "view",
      "type": "function"
    },
    {
      "inputs": [
        {
          "internalType": "address",
          "name": "target",
          "type": "address"
        },
        {
          "internalType": "uint256",
          "name": "value",
          "type": "uint256"
        },
        {
          "internalType": "bytes",
          "name": "data",
          "type": "bytes"
        }
      ],
      "name": "relay",
      "outputs": [],
      "stateMutability": "nonpayable",
      "type": "function"
    },
    {
      "inputs": [
        {
          "internalType": "uint256",
          "name": "newProposalThreshold",
          "type": "uint256"
        }
      ],
      "name": "setProposalThreshold",
      "outputs": [],
      "stateMutability": "nonpayable",
      "type": "function"
    },
    {
      "inputs": [
        {
          "internalType": "uint256",
          "name": "newVotingDelay",
          "type": "uint256"
        }
      ],
      "name": "setVotingDelay",
      "outputs": [],
      "stateMutability": "nonpayable",
      "type": "function"
    },
    {
      "inputs": [
        {
          "internalType": "uint256",
          "name": "newVotingPeriod",
          "type": "uint256"
        }
      ],
      "name": "setVotingPeriod",
      "outputs": [],
      "stateMutability": "nonpayable",
      "type": "function"
    },
    {
      "inputs": [
        {
          "internalType": "uint256",
          "name": "proposalId",
          "type": "uint256"
        }
      ],
      "name": "state",
      "outputs": [
        {
          "internalType": "enum IGovernor.ProposalState",
          "name": "",
          "type": "uint8"
        }
      ],
      "stateMutability": "view",
      "type": "function"
    },
    {
      "inputs": [
        {
          "internalType": "bytes4",
          "name": "interfaceId",
          "type": "bytes4"
        }
      ],
      "name": "supportsInterface",
      "outputs": [
        {
          "internalType": "bool",
          "name": "",
          "type": "bool"
        }
      ],
      "stateMutability": "view",
      "type": "function"
    },
    {
      "inputs": [],
      "name": "timelock",
      "outputs": [
        {
          "internalType": "address",
          "name": "",
          "type": "address"
        }
      ],
      "stateMutability": "view",
      "type": "function"
    },
    {
      "inputs": [],
      "name": "token",
      "outputs": [
        {
          "internalType": "contract IVotes",
          "name": "",
          "type": "address"
        }
      ],
      "stateMutability": "view",
      "type": "function"
    },
    {
      "inputs": [
        {
          "internalType": "uint256",
          "name": "newQuorumNumerator",
          "type": "uint256"
        }
      ],
      "name": "updateQuorumNumerator",
      "outputs": [],
      "stateMutability": "nonpayable",
      "type": "function"
    },
    {
      "inputs": [
        {
          "internalType": "contract TimelockController",
          "name": "newTimelock",
          "type": "address"
        }
      ],
      "name": "updateTimelock",
      "outputs": [],
      "stateMutability": "nonpayable",
      "type": "function"
    },
    {
      "inputs": [],
      "name": "version",
      "outputs": [
        {
          "internalType": "string",
          "name": "",
          "type": "string"
        }
      ],
      "stateMutability": "view",
      "type": "function"
    },
    {
      "inputs": [],
      "name": "votingDelay",
      "outputs": [
        {
          "internalType": "uint256",
          "name": "",
          "type": "uint256"
        }
      ],
      "stateMutability": "view",
      "type": "function"
    },
    {
      "inputs": [],
      "name": "votingPeriod",
      "outputs": [
        {
          "internalType": "uint256",
          "name": "",
          "type": "uint256"
        }
      ],
      "stateMutability": "view",
      "type": "function"
    },
    {
      "stateMutability": "payable",
      "type": "receive"
    }
  ],
  "bytecode": "0x6101606040523480156200001257600080fd5b5060405162006c7c38038062006c7c833981810160405281019062000038919062000695565b808486858560006040518060400160405280601081526020017f476f7665726e6f72436f6e7472616374000000000000000000000000000000008152508062000086620001f360201b60201c565b60008280519060200120905060008280519060200120905060007f8b73c3c69bb8fe3d512ecc4cf759cc79239f7b179b0ffacaa9a75d522b39400f90508260e081815250508161010081815250504660a08181525050620000ef8184846200023060201b60201c565b608081815250503073ffffffffffffffffffffffffffffffffffffffff1660c08173ffffffffffffffffffffffffffffffffffffffff1660601b815250508061012081815250505050505050806000908051906020019062000153929190620004d3565b505062000166836200026c60201b60201c565b6200017782620002b360201b60201c565b62000188816200034060201b60201c565b5050506200019c816200038760201b60201c565b508073ffffffffffffffffffffffffffffffffffffffff166101408173ffffffffffffffffffffffffffffffffffffffff1660601b8152505050620001e7816200042860201b60201c565b505050505050620009dd565b60606040518060400160405280600181526020017f3100000000000000000000000000000000000000000000000000000000000000815250905090565b600083838346306040516020016200024d9594939291906200075a565b6040516020818303038152906040528051906020012090509392505050565b7fc565b045403dc03c2eea82b81a0465edad9e2e7fc4d97e11421c209da93d7a9360045482604051620002a1929190620007b7565b60405180910390a18060048190555050565b60008111620002f9576040517f08c379a0000000000000000000000000000000000000000000000000000000008152600401620002f0906200086b565b60405180910390fd5b7f7e3f7f0708a84de9203036abaa450dccc85ad5ff52f78c170f3edb55cf5e8828600554826040516200032e929190620007b7565b60405180910390a18060058190555050565b7fccb45da8d5717e6c4544694297c4ba5cf151d455c9bb0ed4fc7a38411bc054616006548260405162000375929190620007b7565b60405180910390a18060068190555050565b7f08f74ea46ef7894f65eabfb5e6e695de773a000b47c529ab559178069b226401600860009054906101000a900473ffffffffffffffffffffffffffffffffffffffff1682604051620003dc9291906200088d565b60405180910390a180600860006101000a81548173ffffffffffffffffffffffffffffffffffffffff021916908373ffffffffffffffffffffffffffffffffffffffff16021790555050565b62000438620004ca60201b60201c565b8111156200047d576040517f08c379a0000000000000000000000000000000000000000000000000000000008152600401620004749062000956565b60405180910390fd5b6000600a54905081600a819055507f0553476bf02ef2726e8ce5ced78d63e26e602e4a2257b1f559418e24b46339978183604051620004be929190620007b7565b60405180910390a15050565b60006064905090565b828054620004e190620009a7565b90600052602060002090601f01602090048101928262000505576000855562000551565b82601f106200052057805160ff191683800117855562000551565b8280016001018555821562000551579182015b828111156200055057825182559160200191906001019062000533565b5b50905062000560919062000564565b5090565b5b808211156200057f57600081600090555060010162000565565b5090565b600080fd5b600073ffffffffffffffffffffffffffffffffffffffff82169050919050565b6000620005b58262000588565b9050919050565b6000620005c982620005a8565b9050919050565b620005db81620005bc565b8114620005e757600080fd5b50565b600081519050620005fb81620005d0565b92915050565b60006200060e8262000588565b9050919050565b6000620006228262000601565b9050919050565b620006348162000615565b81146200064057600080fd5b50565b600081519050620006548162000629565b92915050565b6000819050919050565b6200066f816200065a565b81146200067b57600080fd5b50565b6000815190506200068f8162000664565b92915050565b600080600080600060a08688031215620006b457620006b362000583565b5b6000620006c488828901620005ea565b9550506020620006d78882890162000643565b9450506040620006ea888289016200067e565b9350506060620006fd888289016200067e565b925050608062000710888289016200067e565b9150509295509295909350565b6000819050919050565b62000732816200071d565b82525050565b62000743816200065a565b82525050565b620007548162000601565b82525050565b600060a08201905062000771600083018862000727565b62000780602083018762000727565b6200078f604083018662000727565b6200079e606083018562000738565b620007ad608083018462000749565b9695505050505050565b6000604082019050620007ce600083018562000738565b620007dd602083018462000738565b9392505050565b600082825260208201905092915050565b7f476f7665726e6f7253657474696e67733a20766f74696e6720706572696f642060008201527f746f6f206c6f7700000000000000000000000000000000000000000000000000602082015250565b600062000853602783620007e4565b91506200086082620007f5565b604082019050919050565b60006020820190508181036000830152620008868162000844565b9050919050565b6000604082019050620008a4600083018562000749565b620008b3602083018462000749565b9392505050565b7f476f7665726e6f72566f74657351756f72756d4672616374696f6e3a2071756f60008201527f72756d4e756d657261746f72206f7665722071756f72756d44656e6f6d696e6160208201527f746f720000000000000000000000000000000000000000000000000000000000604082015250565b60006200093e604383620007e4565b91506200094b82620008ba565b606082019050919050565b6000602082019050818103600083015262000971816200092f565b9050919050565b7f4e487b7100000000000000000000000000000000000000000000000000000000600052602260045260246000fd5b60006002820490506001821680620009c057607f821691505b60208210811415620009d757620009d662000978565b5b50919050565b60805160a05160c05160601c60e05161010051610120516101405160601c61623062000a4c60003960008181611f9301528181612057015261291501526000612d9601526000612dd801526000612db701526000612cec01526000612d4201526000612d6b01526162306000f3fe60806040526004361061023f5760003560e01c80637d5e81e21161012e578063c59057e4116100ab578063eb9019d41161006f578063eb9019d4146109ac578063ece40cc1146109e9578063f23a6e6114610a12578063f8ce560a14610a4f578063fc0c546a14610a8c57610285565b8063c59057e4146108c5578063d33219b414610902578063dd4e2ba51461092d578063deaaa7cc14610958578063ea0217cf1461098357610285565b8063ab58fb8e116100f2578063ab58fb8e146107ba578063b58131b0146107f7578063bc197c8114610822578063c01f9e371461085f578063c28bc2fa1461089c57610285565b80637d5e81e2146106c157806397c3d334146106fe5780639a802a6d14610729578063a7713a7014610766578063a890c9101461079157610285565b80633932abb1116101bc57806354fd4d501161018057806354fd4d50146105b657806356781388146105e15780635f398a141461061e57806370b0f6601461065b5780637b3c71d31461068457610285565b80633932abb1146104955780633bccf4fd146104c05780633e4f49e6146104fd578063438596321461053a578063544ffc9c1461057757610285565b8063150b7a0211610203578063150b7a0214610383578063160cbed7146103c05780632656227d146103fd5780632d63f6931461042d5780632fe3e2611461046a57610285565b806301ffc9a71461028a57806302a251a3146102c757806303420181146102f257806306f3f9e61461032f57806306fdde031461035857610285565b36610285573073ffffffffffffffffffffffffffffffffffffffff16610263610ab7565b73ffffffffffffffffffffffffffffffffffffffff161461028357600080fd5b005b600080fd5b34801561029657600080fd5b506102b160048036038101906102ac9190613923565b610ac6565b6040516102be919061396b565b60405180910390f35b3480156102d357600080fd5b506102dc610ad8565b6040516102e9919061399f565b60405180910390f35b3480156102fe57600080fd5b5061031960048036038101906103149190613bfb565b610ae7565b604051610326919061399f565b60405180910390f35b34801561033b57600080fd5b5061035660048036038101906103519190613cd9565b610bcc565b005b34801561036457600080fd5b5061036d610cc8565b60405161037a9190613d8e565b60405180910390f35b34801561038f57600080fd5b506103aa60048036038101906103a59190613e0e565b610d5a565b6040516103b79190613ea0565b60405180910390f35b3480156103cc57600080fd5b506103e760048036038101906103e29190614122565b610d6e565b6040516103f4919061399f565b60405180910390f35b61041760048036038101906104129190614122565b611046565b604051610424919061399f565b60405180910390f35b34801561043957600080fd5b50610454600480360381019061044f9190613cd9565b611193565b604051610461919061399f565b60405180910390f35b34801561047657600080fd5b5061047f611201565b60405161048c91906141ec565b60405180910390f35b3480156104a157600080fd5b506104aa611225565b6040516104b7919061399f565b60405180910390f35b3480156104cc57600080fd5b506104e760048036038101906104e29190614207565b611234565b6040516104f4919061399f565b60405180910390f35b34801561050957600080fd5b50610524600480360381019061051f9190613cd9565b6112be565b60405161053191906142f9565b60405180910390f35b34801561054657600080fd5b50610561600480360381019061055c9190614314565b6112d0565b60405161056e919061396b565b60405180910390f35b34801561058357600080fd5b5061059e60048036038101906105999190613cd9565b61133b565b6040516105ad93929190614354565b60405180910390f35b3480156105c257600080fd5b506105cb611373565b6040516105d89190613d8e565b60405180910390f35b3480156105ed57600080fd5b506106086004803603810190610603919061438b565b6113b0565b604051610615919061399f565b60405180910390f35b34801561062a57600080fd5b50610645600480360381019061064091906143cb565b6113e1565b604051610652919061399f565b60405180910390f35b34801561066757600080fd5b50610682600480360381019061067d9190613cd9565b61144b565b005b34801561069057600080fd5b506106ab60048036038101906106a6919061446f565b611547565b6040516106b8919061399f565b60405180910390f35b3480156106cd57600080fd5b506106e860048036038101906106e39190614584565b6115af565b6040516106f5919061399f565b60405180910390f35b34801561070a57600080fd5b506107136118b6565b604051610720919061399f565b60405180910390f35b34801561073557600080fd5b50610750600480360381019061074b919061465b565b6118bf565b60405161075d919061399f565b60405180910390f35b34801561077257600080fd5b5061077b6118d5565b604051610788919061399f565b60405180910390f35b34801561079d57600080fd5b506107b860048036038101906107b3919061471a565b6118df565b005b3480156107c657600080fd5b506107e160048036038101906107dc9190613cd9565b6119db565b6040516107ee919061399f565b60405180910390f35b34801561080357600080fd5b5061080c611ab7565b604051610819919061399f565b60405180910390f35b34801561082e57600080fd5b5061084960048036038101906108449190614747565b611ac6565b6040516108569190613ea0565b60405180910390f35b34801561086b57600080fd5b5061088660048036038101906108819190613cd9565b611adb565b604051610893919061399f565b60405180910390f35b3480156108a857600080fd5b506108c360048036038101906108be919061486c565b611b49565b005b3480156108d157600080fd5b506108ec60048036038101906108e79190614122565b611c8f565b6040516108f9919061399f565b60405180910390f35b34801561090e57600080fd5b50610917611ccb565b60405161092491906148ef565b60405180910390f35b34801561093957600080fd5b50610942611cf5565b60405161094f9190613d8e565b60405180910390f35b34801561096457600080fd5b5061096d611d32565b60405161097a91906141ec565b60405180910390f35b34801561098f57600080fd5b506109aa60048036038101906109a59190613cd9565b611d56565b005b3480156109b857600080fd5b506109d360048036038101906109ce919061490a565b611e52565b6040516109e0919061399f565b60405180910390f35b3480156109f557600080fd5b50610a106004803603810190610a0b9190613cd9565b611e6e565b005b348015610a1e57600080fd5b50610a396004803603810190610a34919061494a565b611f6a565b604051610a469190613ea0565b60405180910390f35b348015610a5b57600080fd5b50610a766004803603810190610a719190613cd9565b611f7f565b604051610a83919061399f565b60405180910390f35b348015610a9857600080fd5b50610aa1612055565b604051610aae9190614a40565b60405180910390f35b6000610ac1612079565b905090565b6000610ad1826120a3565b9050919050565b6000610ae261211d565b905090565b600080610b6a610b627fb3b3f3b703cd84ce352197dcff232b1b5d3cfb2025ce47cf04742d0651f1af888c8c8c8c604051610b23929190614a8b565b60405180910390208b80519060200120604051602001610b47959493929190614ab3565b60405160208183030381529060405280519060200120612127565b868686612141565b9050610bbd8a828b8b8b8080601f016020809104026020016040519081016040528093929190818152602001838380828437600081840152601f19601f820116905080830192505050505050508a61216c565b91505098975050505050505050565b610bd4610ab7565b73ffffffffffffffffffffffffffffffffffffffff16610bf2612329565b73ffffffffffffffffffffffffffffffffffffffff1614610c48576040517f08c379a0000000000000000000000000000000000000000000000000000000008152600401610c3f90614b52565b60405180910390fd5b3073ffffffffffffffffffffffffffffffffffffffff16610c67610ab7565b73ffffffffffffffffffffffffffffffffffffffff1614610cbc576000610c8c612331565b604051610c9a929190614a8b565b604051809103902090505b80610cb0600261233e565b14610cba57610ca5565b505b610cc58161241a565b50565b606060008054610cd790614ba1565b80601f0160208091040260200160405190810160405280929190818152602001828054610d0390614ba1565b8015610d505780601f10610d2557610100808354040283529160200191610d50565b820191906000526020600020905b815481529060010190602001808311610d3357829003601f168201915b5050505050905090565b600063150b7a0260e01b9050949350505050565b600080610d7d86868686611c8f565b905060046007811115610d9357610d92614282565b5b610d9c826112be565b6007811115610dae57610dad614282565b5b14610dee576040517f08c379a0000000000000000000000000000000000000000000000000000000008152600401610de590614c45565b60405180910390fd5b6000600860009054906101000a900473ffffffffffffffffffffffffffffffffffffffff1673ffffffffffffffffffffffffffffffffffffffff1663f27a0c926040518163ffffffff1660e01b815260040160206040518083038186803b158015610e5857600080fd5b505afa158015610e6c573d6000803e3d6000fd5b505050506040513d601f19601f82011682018060405250810190610e909190614c7a565b9050600860009054906101000a900473ffffffffffffffffffffffffffffffffffffffff1673ffffffffffffffffffffffffffffffffffffffff1663b1c5f4278888886000896040518663ffffffff1660e01b8152600401610ef6959493929190614f82565b60206040518083038186803b158015610f0e57600080fd5b505afa158015610f22573d6000803e3d6000fd5b505050506040513d601f19601f82011682018060405250810190610f469190614fff565b6009600084815260200190815260200160002081905550600860009054906101000a900473ffffffffffffffffffffffffffffffffffffffff1673ffffffffffffffffffffffffffffffffffffffff16638f2a0bb0888888600089876040518763ffffffff1660e01b8152600401610fc39695949392919061502c565b600060405180830381600087803b158015610fdd57600080fd5b505af1158015610ff1573d6000803e3d6000fd5b505050507f9a2e42fd6722813d69113e7d0079d3d940171428df7373df9c7f7617cfda289282824261102391906150d1565b604051611031929190615127565b60405180910390a18192505050949350505050565b60008061105586868686611c8f565b90506000611062826112be565b90506004600781111561107857611077614282565b5b81600781111561108b5761108a614282565b5b14806110bb5750600560078111156110a6576110a5614282565b5b8160078111156110b9576110b8614282565b5b145b6110fa576040517f08c379a00000000000000000000000000000000000000000000000000000000081526004016110f190614c45565b60405180910390fd5b600180600084815260200190815260200160002060020160006101000a81548160ff0219169083151502179055507f712ae1383f79ac853f8d882153778e0260ef8f03b504e2866e0593e04d2b291f82604051611157919061399f565b60405180910390a161116c82888888886124af565b6111798288888888612593565b61118682888888886125a7565b8192505050949350505050565b60006111f0600160008481526020019081526020016000206000016040518060200160405290816000820160009054906101000a900467ffffffffffffffff1667ffffffffffffffff1667ffffffffffffffff1681525050612602565b67ffffffffffffffff169050919050565b7fb3b3f3b703cd84ce352197dcff232b1b5d3cfb2025ce47cf04742d0651f1af8881565b600061122f612610565b905090565b60008061129561128d7f150214d74d59b7d1e90c73fc22ef3d991dd0a76b046543d4d80ab92d2a50328f898960405160200161127293929190615150565b60405160208183030381529060405280519060200120612127565b868686612141565b90506112b28782886040518060200160405280600081525061261a565b91505095945050505050565b60006112c98261263a565b9050919050565b60006007600084815260200190815260200160002060030160008373ffffffffffffffffffffffffffffffffffffffff1673ffffffffffffffffffffffffffffffffffffffff16815260200190815260200160002060009054906101000a900460ff16905092915050565b600080600080600760008681526020019081526020016000209050806000015481600101548260020154935093509350509193909250565b60606040518060400160405280600181526020017f3100000000000000000000000000000000000000000000000000000000000000815250905090565b6000806113bb612329565b90506113d88482856040518060200160405280600081525061261a565b91505092915050565b6000806113ec612329565b905061143f87828888888080601f016020809104026020016040519081016040528093929190818152602001838380828437600081840152601f19601f820116905080830192505050505050508761216c565b91505095945050505050565b611453610ab7565b73ffffffffffffffffffffffffffffffffffffffff16611471612329565b73ffffffffffffffffffffffffffffffffffffffff16146114c7576040517f08c379a00000000000000000000000000000000000000000000000000000000081526004016114be90614b52565b60405180910390fd5b3073ffffffffffffffffffffffffffffffffffffffff166114e6610ab7565b73ffffffffffffffffffffffffffffffffffffffff161461153b57600061150b612331565b604051611519929190614a8b565b604051809103902090505b8061152f600261233e565b1461153957611524565b505b6115448161282c565b50565b600080611552612329565b90506115a486828787878080601f016020809104026020016040519081016040528093929190818152602001838380828437600081840152601f19601f8201169050808301925050505050505061261a565b915050949350505050565b60006115b9611ab7565b6115d66115c4612329565b6001436115d19190615187565b611e52565b1015611617576040517f08c379a000000000000000000000000000000000000000000000000000000000815260040161160e9061522d565b60405180910390fd5b600061162c8686868680519060200120611c8f565b90508451865114611672576040517f08c379a0000000000000000000000000000000000000000000000000000000008152600401611669906152bf565b60405180910390fd5b83518651146116b6576040517f08c379a00000000000000000000000000000000000000000000000000000000081526004016116ad906152bf565b60405180910390fd5b60008651116116fa576040517f08c379a00000000000000000000000000000000000000000000000000000000081526004016116f19061532b565b60405180910390fd5b600060016000838152602001908152602001600020905061175a816000016040518060200160405290816000820160009054906101000a900467ffffffffffffffff1667ffffffffffffffff1667ffffffffffffffff1681525050612871565b611799576040517f08c379a0000000000000000000000000000000000000000000000000000000008152600401611790906153bd565b60405180910390fd5b60006117ab6117a6611225565b61288b565b6117b44361288b565b6117be91906153f1565b905060006117d26117cd610ad8565b61288b565b826117dd91906153f1565b90506117f582846000016128e290919063ffffffff16565b61180b81846001016128e290919063ffffffff16565b7f7d84a6263ae0d98d3329bd7b46bb4e8d6f98cd35a7adb45c274c8b7fd5ebd5e084611835612329565b8b8b8d5167ffffffffffffffff81111561185257611851613a9a565b5b60405190808252806020026020018201604052801561188557816020015b60608152602001906001900390816118705790505b508c88888e60405161189f9998979695949392919061556c565b60405180910390a183945050505050949350505050565b60006064905090565b60006118cc848484612911565b90509392505050565b6000600a54905090565b6118e7610ab7565b73ffffffffffffffffffffffffffffffffffffffff16611905612329565b73ffffffffffffffffffffffffffffffffffffffff161461195b576040517f08c379a000000000000000000000000000000000000000000000000000000000815260040161195290614b52565b60405180910390fd5b3073ffffffffffffffffffffffffffffffffffffffff1661197a610ab7565b73ffffffffffffffffffffffffffffffffffffffff16146119cf57600061199f612331565b6040516119ad929190614a8b565b604051809103902090505b806119c3600261233e565b146119cd576119b8565b505b6119d8816129c7565b50565b600080600860009054906101000a900473ffffffffffffffffffffffffffffffffffffffff1673ffffffffffffffffffffffffffffffffffffffff1663d45c443560096000868152602001908152602001600020546040518263ffffffff1660e01b8152600401611a4c91906141ec565b60206040518083038186803b158015611a6457600080fd5b505afa158015611a78573d6000803e3d6000fd5b505050506040513d601f19601f82011682018060405250810190611a9c9190614c7a565b905060018114611aac5780611aaf565b60005b915050919050565b6000611ac1612a66565b905090565b600063bc197c8160e01b905095945050505050565b6000611b38600160008481526020019081526020016000206001016040518060200160405290816000820160009054906101000a900467ffffffffffffffff1667ffffffffffffffff1667ffffffffffffffff1681525050612602565b67ffffffffffffffff169050919050565b611b51610ab7565b73ffffffffffffffffffffffffffffffffffffffff16611b6f612329565b73ffffffffffffffffffffffffffffffffffffffff1614611bc5576040517f08c379a0000000000000000000000000000000000000000000000000000000008152600401611bbc90614b52565b60405180910390fd5b3073ffffffffffffffffffffffffffffffffffffffff16611be4610ab7565b73ffffffffffffffffffffffffffffffffffffffff1614611c39576000611c09612331565b604051611c17929190614a8b565b604051809103902090505b80611c2d600261233e565b14611c3757611c22565b505b611c888483838080601f016020809104026020016040519081016040528093929190818152602001838380828437600081840152601f19601f8201169050808301925050505050505085612a70565b5050505050565b600084848484604051602001611ca8949392919061561c565b6040516020818303038152906040528051906020012060001c9050949350505050565b6000600860009054906101000a900473ffffffffffffffffffffffffffffffffffffffff16905090565b60606040518060400160405280602081526020017f737570706f72743d627261766f2671756f72756d3d666f722c6162737461696e815250905090565b7f150214d74d59b7d1e90c73fc22ef3d991dd0a76b046543d4d80ab92d2a50328f81565b611d5e610ab7565b73ffffffffffffffffffffffffffffffffffffffff16611d7c612329565b73ffffffffffffffffffffffffffffffffffffffff1614611dd2576040517f08c379a0000000000000000000000000000000000000000000000000000000008152600401611dc990614b52565b60405180910390fd5b3073ffffffffffffffffffffffffffffffffffffffff16611df1610ab7565b73ffffffffffffffffffffffffffffffffffffffff1614611e46576000611e16612331565b604051611e24929190614a8b565b604051809103902090505b80611e3a600261233e565b14611e4457611e2f565b505b611e4f81612a9f565b50565b6000611e668383611e61612b27565b612911565b905092915050565b611e76610ab7565b73ffffffffffffffffffffffffffffffffffffffff16611e94612329565b73ffffffffffffffffffffffffffffffffffffffff1614611eea576040517f08c379a0000000000000000000000000000000000000000000000000000000008152600401611ee190614b52565b60405180910390fd5b3073ffffffffffffffffffffffffffffffffffffffff16611f09610ab7565b73ffffffffffffffffffffffffffffffffffffffff1614611f5e576000611f2e612331565b604051611f3c929190614a8b565b604051809103902090505b80611f52600261233e565b14611f5c57611f47565b505b611f6781612b3e565b50565b600063f23a6e6160e01b905095945050505050565b6000611f896118b6565b611f916118d5565b7f000000000000000000000000000000000000000000000000000000000000000073ffffffffffffffffffffffffffffffffffffffff16638e539e8c856040518263ffffffff1660e01b8152600401611fea919061399f565b60206040518083038186803b15801561200257600080fd5b505afa158015612016573d6000803e3d6000fd5b505050506040513d601f19601f8201168201806040525081019061203a9190614c7a565b6120449190615676565b61204e91906156ff565b9050919050565b7f000000000000000000000000000000000000000000000000000000000000000081565b6000600860009054906101000a900473ffffffffffffffffffffffffffffffffffffffff16905090565b60007f6e665ced000000000000000000000000000000000000000000000000000000007bffffffffffffffffffffffffffffffffffffffffffffffffffffffff1916827bffffffffffffffffffffffffffffffffffffffffffffffffffffffff19161480612116575061211582612b83565b5b9050919050565b6000600554905090565b600061213a612134612ce8565b83612e02565b9050919050565b600080600061215287878787612e35565b9150915061215f81612f42565b8192505050949350505050565b6000806001600088815260200190815260200160002090506001600781111561219857612197614282565b5b6121a1886112be565b60078111156121b3576121b2614282565b5b146121f3576040517f08c379a00000000000000000000000000000000000000000000000000000000081526004016121ea906157a2565b60405180910390fd5b600061225287612242846000016040518060200160405290816000820160009054906101000a900467ffffffffffffffff1667ffffffffffffffff1667ffffffffffffffff1681525050612602565b67ffffffffffffffff1686612911565b90506122618888888488613117565b6000845114156122c4578673ffffffffffffffffffffffffffffffffffffffff167fb8e138887d0aa13bab447e82de9d5c1777041ecd21ca36ba824ff1e6c07ddda4898884896040516122b794939291906157c2565b60405180910390a261231b565b8673ffffffffffffffffffffffffffffffffffffffff167fe2babfbac5889a709b63bb7f598b324e08bc5a4fb9ec647fb3cbc9ec07eb87128988848989604051612312959493929190615858565b60405180910390a25b809250505095945050505050565b600033905090565b3660008036915091509091565b60006123498261331e565b15612380576040517f3db2a12a00000000000000000000000000000000000000000000000000000000815260040160405180910390fd5b60008260000160009054906101000a9004600f0b905082600101600082600f0b600f0b815260200190815260200160002054915082600101600082600f0b600f0b815260200190815260200160002060009055600181018360000160006101000a8154816fffffffffffffffffffffffffffffffff0219169083600f0b6fffffffffffffffffffffffffffffffff16021790555050919050565b6124226118b6565b811115612464576040517f08c379a000000000000000000000000000000000000000000000000000000000815260040161245b90615951565b60405180910390fd5b6000600a54905081600a819055507f0553476bf02ef2726e8ce5ced78d63e26e602e4a2257b1f559418e24b463399781836040516124a3929190615127565b60405180910390a15050565b3073ffffffffffffffffffffffffffffffffffffffff166124ce610ab7565b73ffffffffffffffffffffffffffffffffffffffff161461258c5760005b845181101561258a573073ffffffffffffffffffffffffffffffffffffffff1685828151811061251f5761251e615971565b5b602002602001015173ffffffffffffffffffffffffffffffffffffffff1614156125795761257883828151811061255957612558615971565b5b602002602001015180519060200120600261335390919063ffffffff16565b5b80612583906159a0565b90506124ec565b505b5050505050565b6125a085858585856133cf565b5050505050565b3073ffffffffffffffffffffffffffffffffffffffff166125c6610ab7565b73ffffffffffffffffffffffffffffffffffffffff16146125fb576125eb600261331e565b6125fa576125f9600261346d565b5b5b5050505050565b600081600001519050919050565b6000600454905090565b60006126308585858561262b612b27565b61216c565b9050949350505050565b600080612646836134ee565b90506004600781111561265c5761265b614282565b5b81600781111561266f5761266e614282565b5b1461267d5780915050612827565b6000600960008581526020019081526020016000205490506000801b8114156126aa578192505050612827565b600860009054906101000a900473ffffffffffffffffffffffffffffffffffffffff1673ffffffffffffffffffffffffffffffffffffffff16632ab0f529826040518263ffffffff1660e01b815260040161270591906141ec565b60206040518083038186803b15801561271d57600080fd5b505afa158015612731573d6000803e3d6000fd5b505050506040513d601f19601f820116820180604052508101906127559190615a15565b1561276557600792505050612827565b600860009054906101000a900473ffffffffffffffffffffffffffffffffffffffff1673ffffffffffffffffffffffffffffffffffffffff1663584b153e826040518263ffffffff1660e01b81526004016127c091906141ec565b60206040518083038186803b1580156127d857600080fd5b505afa1580156127ec573d6000803e3d6000fd5b505050506040513d601f19601f820116820180604052508101906128109190615a15565b1561282057600592505050612827565b6002925050505b919050565b7fc565b045403dc03c2eea82b81a0465edad9e2e7fc4d97e11421c209da93d7a936004548260405161285f929190615127565b60405180910390a18060048190555050565b600080826000015167ffffffffffffffff16149050919050565b600067ffffffffffffffff80168211156128da576040517f08c379a00000000000000000000000000000000000000000000000000000000081526004016128d190615ab4565b60405180910390fd5b819050919050565b808260000160006101000a81548167ffffffffffffffff021916908367ffffffffffffffff1602179055505050565b60007f000000000000000000000000000000000000000000000000000000000000000073ffffffffffffffffffffffffffffffffffffffff16633a46b1a885856040518363ffffffff1660e01b815260040161296e929190615ad4565b60206040518083038186803b15801561298657600080fd5b505afa15801561299a573d6000803e3d6000fd5b505050506040513d601f19601f820116820180604052508101906129be9190614c7a565b90509392505050565b7f08f74ea46ef7894f65eabfb5e6e695de773a000b47c529ab559178069b226401600860009054906101000a900473ffffffffffffffffffffffffffffffffffffffff1682604051612a1a929190615afd565b60405180910390a180600860006101000a81548173ffffffffffffffffffffffffffffffffffffffff021916908373ffffffffffffffffffffffffffffffffffffffff16021790555050565b6000600654905090565b6060612a968484846040518060600160405280602981526020016161d260299139613603565b90509392505050565b60008111612ae2576040517f08c379a0000000000000000000000000000000000000000000000000000000008152600401612ad990615b98565b60405180910390fd5b7f7e3f7f0708a84de9203036abaa450dccc85ad5ff52f78c170f3edb55cf5e882860055482604051612b15929190615127565b60405180910390a18060058190555050565b606060405180602001604052806000815250905090565b7fccb45da8d5717e6c4544694297c4ba5cf151d455c9bb0ed4fc7a38411bc0546160065482604051612b71929190615127565b60405180910390a18060068190555050565b6000639a802a6d60e01b630342018160e01b635f398a1460e01b7f79dd796f000000000000000000000000000000000000000000000000000000001818187bffffffffffffffffffffffffffffffffffffffffffffffffffffffff1916827bffffffffffffffffffffffffffffffffffffffffffffffffffffffff19161480612c6957507f79dd796f000000000000000000000000000000000000000000000000000000007bffffffffffffffffffffffffffffffffffffffffffffffffffffffff1916827bffffffffffffffffffffffffffffffffffffffffffffffffffffffff1916145b80612cd157507f4e2312e0000000000000000000000000000000000000000000000000000000007bffffffffffffffffffffffffffffffffffffffffffffffffffffffff1916827bffffffffffffffffffffffffffffffffffffffffffffffffffffffff1916145b80612ce15750612ce082613717565b5b9050919050565b60007f000000000000000000000000000000000000000000000000000000000000000073ffffffffffffffffffffffffffffffffffffffff163073ffffffffffffffffffffffffffffffffffffffff16148015612d6457507f000000000000000000000000000000000000000000000000000000000000000046145b15612d91577f00000000000000000000000000000000000000000000000000000000000000009050612dff565b612dfc7f00000000000000000000000000000000000000000000000000000000000000007f00000000000000000000000000000000000000000000000000000000000000007f0000000000000000000000000000000000000000000000000000000000000000613781565b90505b90565b60008282604051602001612e17929190615c30565b60405160208183030381529060405280519060200120905092915050565b6000807f7fffffffffffffffffffffffffffffff5d576e7357a4501ddfe92f46681b20a08360001c1115612e70576000600391509150612f39565b601b8560ff1614158015612e885750601c8560ff1614155b15612e9a576000600491509150612f39565b600060018787878760405160008152602001604052604051612ebf9493929190615c67565b6020604051602081039080840390855afa158015612ee1573d6000803e3d6000fd5b505050602060405103519050600073ffffffffffffffffffffffffffffffffffffffff168173ffffffffffffffffffffffffffffffffffffffff161415612f3057600060019250925050612f39565b80600092509250505b94509492505050565b60006004811115612f5657612f55614282565b5b816004811115612f6957612f68614282565b5b1415612f7457613114565b60016004811115612f8857612f87614282565b5b816004811115612f9b57612f9a614282565b5b1415612fdc576040517f08c379a0000000000000000000000000000000000000000000000000000000008152600401612fd390615cf8565b60405180910390fd5b60026004811115612ff057612fef614282565b5b81600481111561300357613002614282565b5b1415613044576040517f08c379a000000000000000000000000000000000000000000000000000000000815260040161303b90615d64565b60405180910390fd5b6003600481111561305857613057614282565b5b81600481111561306b5761306a614282565b5b14156130ac576040517f08c379a00000000000000000000000000000000000000000000000000000000081526004016130a390615df6565b60405180910390fd5b6004808111156130bf576130be614282565b5b8160048111156130d2576130d1614282565b5b1415613113576040517f08c379a000000000000000000000000000000000000000000000000000000000815260040161310a90615e88565b60405180910390fd5b5b50565b60006007600087815260200190815260200160002090508060030160008673ffffffffffffffffffffffffffffffffffffffff1673ffffffffffffffffffffffffffffffffffffffff16815260200190815260200160002060009054906101000a900460ff16156131bd576040517f08c379a00000000000000000000000000000000000000000000000000000000081526004016131b490615f1a565b60405180910390fd5b60018160030160008773ffffffffffffffffffffffffffffffffffffffff1673ffffffffffffffffffffffffffffffffffffffff16815260200190815260200160002060006101000a81548160ff0219169083151502179055506000600281111561322b5761322a614282565b5b60ff168460ff161415613258578281600001600082825461324c91906150d1565b92505081905550613316565b6001600281111561326c5761326b614282565b5b60ff168460ff161415613299578281600101600082825461328d91906150d1565b92505081905550613315565b6002808111156132ac576132ab614282565b5b60ff168460ff1614156132d957828160020160008282546132cd91906150d1565b92505081905550613314565b6040517f08c379a000000000000000000000000000000000000000000000000000000000815260040161330b90615fac565b60405180910390fd5b5b5b505050505050565b60008160000160009054906101000a9004600f0b600f0b8260000160109054906101000a9004600f0b600f0b13159050919050565b60008260000160109054906101000a9004600f0b90508183600101600083600f0b600f0b815260200190815260200160002081905550600181018360000160106101000a8154816fffffffffffffffffffffffffffffffff0219169083600f0b6fffffffffffffffffffffffffffffffff160217905550505050565b600860009054906101000a900473ffffffffffffffffffffffffffffffffffffffff1673ffffffffffffffffffffffffffffffffffffffff1663e38335e5348686866000876040518763ffffffff1660e01b8152600401613434959493929190614f82565b6000604051808303818588803b15801561344d57600080fd5b505af1158015613461573d6000803e3d6000fd5b50505050505050505050565b60008160000160006101000a8154816fffffffffffffffffffffffffffffffff0219169083600f0b6fffffffffffffffffffffffffffffffff16021790555060008160000160106101000a8154816fffffffffffffffffffffffffffffffff0219169083600f0b6fffffffffffffffffffffffffffffffff16021790555050565b6000806001600084815260200190815260200160002090508060020160009054906101000a900460ff16156135275760079150506135fe565b8060020160019054906101000a900460ff16156135485760029150506135fe565b600061355384611193565b90506000811415613599576040517f08c379a000000000000000000000000000000000000000000000000000000000815260040161359090616018565b60405180910390fd5b4381106135ab576000925050506135fe565b60006135b685611adb565b90504381106135cb57600193505050506135fe565b6135d4856137bb565b80156135e557506135e485613802565b5b156135f657600493505050506135fe565b600393505050505b919050565b606082471015613648576040517f08c379a000000000000000000000000000000000000000000000000000000000815260040161363f906160aa565b60405180910390fd5b6136518561382d565b613690576040517f08c379a000000000000000000000000000000000000000000000000000000000815260040161368790616116565b60405180910390fd5b6000808673ffffffffffffffffffffffffffffffffffffffff1685876040516136b99190616167565b60006040518083038185875af1925050503d80600081146136f6576040519150601f19603f3d011682016040523d82523d6000602084013e6136fb565b606091505b509150915061370b828286613850565b92505050949350505050565b60007f01ffc9a7000000000000000000000000000000000000000000000000000000007bffffffffffffffffffffffffffffffffffffffffffffffffffffffff1916827bffffffffffffffffffffffffffffffffffffffffffffffffffffffff1916149050919050565b6000838383463060405160200161379c95949392919061617e565b6040516020818303038152906040528051906020012090509392505050565b600080600760008481526020019081526020016000209050806002015481600101546137e791906150d1565b6137f86137f385611193565b611f7f565b1115915050919050565b6000806007600084815260200190815260200160002090508060000154816001015411915050919050565b6000808273ffffffffffffffffffffffffffffffffffffffff163b119050919050565b60608315613860578290506138b0565b6000835111156138735782518084602001fd5b816040517f08c379a00000000000000000000000000000000000000000000000000000000081526004016138a79190613d8e565b60405180910390fd5b9392505050565b6000604051905090565b600080fd5b600080fd5b60007fffffffff0000000000000000000000000000000000000000000000000000000082169050919050565b613900816138cb565b811461390b57600080fd5b50565b60008135905061391d816138f7565b92915050565b600060208284031215613939576139386138c1565b5b60006139478482850161390e565b91505092915050565b60008115159050919050565b61396581613950565b82525050565b6000602082019050613980600083018461395c565b92915050565b6000819050919050565b61399981613986565b82525050565b60006020820190506139b46000830184613990565b92915050565b6139c381613986565b81146139ce57600080fd5b50565b6000813590506139e0816139ba565b92915050565b600060ff82169050919050565b6139fc816139e6565b8114613a0757600080fd5b50565b600081359050613a19816139f3565b92915050565b600080fd5b600080fd5b600080fd5b60008083601f840112613a4457613a43613a1f565b5b8235905067ffffffffffffffff811115613a6157613a60613a24565b5b602083019150836001820283011115613a7d57613a7c613a29565b5b9250929050565b600080fd5b6000601f19601f8301169050919050565b7f4e487b7100000000000000000000000000000000000000000000000000000000600052604160045260246000fd5b613ad282613a89565b810181811067ffffffffffffffff82111715613af157613af0613a9a565b5b80604052505050565b6000613b046138b7565b9050613b108282613ac9565b919050565b600067ffffffffffffffff821115613b3057613b2f613a9a565b5b613b3982613a89565b9050602081019050919050565b82818337600083830152505050565b6000613b68613b6384613b15565b613afa565b905082815260208101848484011115613b8457613b83613a84565b5b613b8f848285613b46565b509392505050565b600082601f830112613bac57613bab613a1f565b5b8135613bbc848260208601613b55565b91505092915050565b6000819050919050565b613bd881613bc5565b8114613be357600080fd5b50565b600081359050613bf581613bcf565b92915050565b60008060008060008060008060e0898b031215613c1b57613c1a6138c1565b5b6000613c298b828c016139d1565b9850506020613c3a8b828c01613a0a565b975050604089013567ffffffffffffffff811115613c5b57613c5a6138c6565b5b613c678b828c01613a2e565b9650965050606089013567ffffffffffffffff811115613c8a57613c896138c6565b5b613c968b828c01613b97565b9450506080613ca78b828c01613a0a565b93505060a0613cb88b828c01613be6565b92505060c0613cc98b828c01613be6565b9150509295985092959890939650565b600060208284031215613cef57613cee6138c1565b5b6000613cfd848285016139d1565b91505092915050565b600081519050919050565b600082825260208201905092915050565b60005b83811015613d40578082015181840152602081019050613d25565b83811115613d4f576000848401525b50505050565b6000613d6082613d06565b613d6a8185613d11565b9350613d7a818560208601613d22565b613d8381613a89565b840191505092915050565b60006020820190508181036000830152613da88184613d55565b905092915050565b600073ffffffffffffffffffffffffffffffffffffffff82169050919050565b6000613ddb82613db0565b9050919050565b613deb81613dd0565b8114613df657600080fd5b50565b600081359050613e0881613de2565b92915050565b60008060008060808587031215613e2857613e276138c1565b5b6000613e3687828801613df9565b9450506020613e4787828801613df9565b9350506040613e58878288016139d1565b925050606085013567ffffffffffffffff811115613e7957613e786138c6565b5b613e8587828801613b97565b91505092959194509250565b613e9a816138cb565b82525050565b6000602082019050613eb56000830184613e91565b92915050565b600067ffffffffffffffff821115613ed657613ed5613a9a565b5b602082029050602081019050919050565b6000613efa613ef584613ebb565b613afa565b90508083825260208201905060208402830185811115613f1d57613f1c613a29565b5b835b81811015613f465780613f328882613df9565b845260208401935050602081019050613f1f565b5050509392505050565b600082601f830112613f6557613f64613a1f565b5b8135613f75848260208601613ee7565b91505092915050565b600067ffffffffffffffff821115613f9957613f98613a9a565b5b602082029050602081019050919050565b6000613fbd613fb884613f7e565b613afa565b90508083825260208201905060208402830185811115613fe057613fdf613a29565b5b835b818110156140095780613ff588826139d1565b845260208401935050602081019050613fe2565b5050509392505050565b600082601f83011261402857614027613a1f565b5b8135614038848260208601613faa565b91505092915050565b600067ffffffffffffffff82111561405c5761405b613a9a565b5b602082029050602081019050919050565b600061408061407b84614041565b613afa565b905080838252602082019050602084028301858111156140a3576140a2613a29565b5b835b818110156140ea57803567ffffffffffffffff8111156140c8576140c7613a1f565b5b8086016140d58982613b97565b855260208501945050506020810190506140a5565b5050509392505050565b600082601f83011261410957614108613a1f565b5b813561411984826020860161406d565b91505092915050565b6000806000806080858703121561413c5761413b6138c1565b5b600085013567ffffffffffffffff81111561415a576141596138c6565b5b61416687828801613f50565b945050602085013567ffffffffffffffff811115614187576141866138c6565b5b61419387828801614013565b935050604085013567ffffffffffffffff8111156141b4576141b36138c6565b5b6141c0878288016140f4565b92505060606141d187828801613be6565b91505092959194509250565b6141e681613bc5565b82525050565b600060208201905061420160008301846141dd565b92915050565b600080600080600060a08688031215614223576142226138c1565b5b6000614231888289016139d1565b955050602061424288828901613a0a565b945050604061425388828901613a0a565b935050606061426488828901613be6565b925050608061427588828901613be6565b9150509295509295909350565b7f4e487b7100000000000000000000000000000000000000000000000000000000600052602160045260246000fd5b600881106142c2576142c1614282565b5b50565b60008190506142d3826142b1565b919050565b60006142e3826142c5565b9050919050565b6142f3816142d8565b82525050565b600060208201905061430e60008301846142ea565b92915050565b6000806040838503121561432b5761432a6138c1565b5b6000614339858286016139d1565b925050602061434a85828601613df9565b9150509250929050565b60006060820190506143696000830186613990565b6143766020830185613990565b6143836040830184613990565b949350505050565b600080604083850312156143a2576143a16138c1565b5b60006143b0858286016139d1565b92505060206143c185828601613a0a565b9150509250929050565b6000806000806000608086880312156143e7576143e66138c1565b5b60006143f5888289016139d1565b955050602061440688828901613a0a565b945050604086013567ffffffffffffffff811115614427576144266138c6565b5b61443388828901613a2e565b9350935050606086013567ffffffffffffffff811115614456576144556138c6565b5b61446288828901613b97565b9150509295509295909350565b60008060008060608587031215614489576144886138c1565b5b6000614497878288016139d1565b94505060206144a887828801613a0a565b935050604085013567ffffffffffffffff8111156144c9576144c86138c6565b5b6144d587828801613a2e565b925092505092959194509250565b600067ffffffffffffffff8211156144fe576144fd613a9a565b5b61450782613a89565b9050602081019050919050565b6000614527614522846144e3565b613afa565b90508281526020810184848401111561454357614542613a84565b5b61454e848285613b46565b509392505050565b600082601f83011261456b5761456a613a1f565b5b813561457b848260208601614514565b91505092915050565b6000806000806080858703121561459e5761459d6138c1565b5b600085013567ffffffffffffffff8111156145bc576145bb6138c6565b5b6145c887828801613f50565b945050602085013567ffffffffffffffff8111156145e9576145e86138c6565b5b6145f587828801614013565b935050604085013567ffffffffffffffff811115614616576146156138c6565b5b614622878288016140f4565b925050606085013567ffffffffffffffff811115614643576146426138c6565b5b61464f87828801614556565b91505092959194509250565b600080600060608486031215614674576146736138c1565b5b600061468286828701613df9565b9350506020614693868287016139d1565b925050604084013567ffffffffffffffff8111156146b4576146b36138c6565b5b6146c086828701613b97565b9150509250925092565b60006146d582613db0565b9050919050565b60006146e7826146ca565b9050919050565b6146f7816146dc565b811461470257600080fd5b50565b600081359050614714816146ee565b92915050565b6000602082840312156147305761472f6138c1565b5b600061473e84828501614705565b91505092915050565b600080600080600060a08688031215614763576147626138c1565b5b600061477188828901613df9565b955050602061478288828901613df9565b945050604086013567ffffffffffffffff8111156147a3576147a26138c6565b5b6147af88828901614013565b935050606086013567ffffffffffffffff8111156147d0576147cf6138c6565b5b6147dc88828901614013565b925050608086013567ffffffffffffffff8111156147fd576147fc6138c6565b5b61480988828901613b97565b9150509295509295909350565b60008083601f84011261482c5761482b613a1f565b5b8235905067ffffffffffffffff81111561484957614848613a24565b5b60208301915083600182028301111561486557614864613a29565b5b9250929050565b60008060008060608587031215614886576148856138c1565b5b600061489487828801613df9565b94505060206148a5878288016139d1565b935050604085013567ffffffffffffffff8111156148c6576148c56138c6565b5b6148d287828801614816565b925092505092959194509250565b6148e981613dd0565b82525050565b600060208201905061490460008301846148e0565b92915050565b60008060408385031215614921576149206138c1565b5b600061492f85828601613df9565b9250506020614940858286016139d1565b9150509250929050565b600080600080600060a08688031215614966576149656138c1565b5b600061497488828901613df9565b955050602061498588828901613df9565b9450506040614996888289016139d1565b93505060606149a7888289016139d1565b925050608086013567ffffffffffffffff8111156149c8576149c76138c6565b5b6149d488828901613b97565b9150509295509295909350565b6000819050919050565b6000614a06614a016149fc84613db0565b6149e1565b613db0565b9050919050565b6000614a18826149eb565b9050919050565b6000614a2a82614a0d565b9050919050565b614a3a81614a1f565b82525050565b6000602082019050614a556000830184614a31565b92915050565b600081905092915050565b6000614a728385614a5b565b9350614a7f838584613b46565b82840190509392505050565b6000614a98828486614a66565b91508190509392505050565b614aad816139e6565b82525050565b600060a082019050614ac860008301886141dd565b614ad56020830187613990565b614ae26040830186614aa4565b614aef60608301856141dd565b614afc60808301846141dd565b9695505050505050565b7f476f7665726e6f723a206f6e6c79476f7665726e616e63650000000000000000600082015250565b6000614b3c601883613d11565b9150614b4782614b06565b602082019050919050565b60006020820190508181036000830152614b6b81614b2f565b9050919050565b7f4e487b7100000000000000000000000000000000000000000000000000000000600052602260045260246000fd5b60006002820490506001821680614bb957607f821691505b60208210811415614bcd57614bcc614b72565b5b50919050565b7f476f7665726e6f723a2070726f706f73616c206e6f742073756363657373667560008201527f6c00000000000000000000000000000000000000000000000000000000000000602082015250565b6000614c2f602183613d11565b9150614c3a82614bd3565b604082019050919050565b60006020820190508181036000830152614c5e81614c22565b9050919050565b600081519050614c74816139ba565b92915050565b600060208284031215614c9057614c8f6138c1565b5b6000614c9e84828501614c65565b91505092915050565b600081519050919050565b600082825260208201905092915050565b6000819050602082019050919050565b614cdc81613dd0565b82525050565b6000614cee8383614cd3565b60208301905092915050565b6000602082019050919050565b6000614d1282614ca7565b614d1c8185614cb2565b9350614d2783614cc3565b8060005b83811015614d58578151614d3f8882614ce2565b9750614d4a83614cfa565b925050600181019050614d2b565b5085935050505092915050565b600081519050919050565b600082825260208201905092915050565b6000819050602082019050919050565b614d9a81613986565b82525050565b6000614dac8383614d91565b60208301905092915050565b6000602082019050919050565b6000614dd082614d65565b614dda8185614d70565b9350614de583614d81565b8060005b83811015614e16578151614dfd8882614da0565b9750614e0883614db8565b925050600181019050614de9565b5085935050505092915050565b600081519050919050565b600082825260208201905092915050565b6000819050602082019050919050565b600081519050919050565b600082825260208201905092915050565b6000614e7682614e4f565b614e808185614e5a565b9350614e90818560208601613d22565b614e9981613a89565b840191505092915050565b6000614eb08383614e6b565b905092915050565b6000602082019050919050565b6000614ed082614e23565b614eda8185614e2e565b935083602082028501614eec85614e3f565b8060005b85811015614f285784840389528151614f098582614ea4565b9450614f1483614eb8565b925060208a01995050600181019050614ef0565b50829750879550505050505092915050565b6000819050919050565b60008160001b9050919050565b6000614f6c614f67614f6284614f3a565b614f44565b613bc5565b9050919050565b614f7c81614f51565b82525050565b600060a0820190508181036000830152614f9c8188614d07565b90508181036020830152614fb08187614dc5565b90508181036040830152614fc48186614ec5565b9050614fd36060830185614f73565b614fe060808301846141dd565b9695505050505050565b600081519050614ff981613bcf565b92915050565b600060208284031215615015576150146138c1565b5b600061502384828501614fea565b91505092915050565b600060c08201905081810360008301526150468189614d07565b9050818103602083015261505a8188614dc5565b9050818103604083015261506e8187614ec5565b905061507d6060830186614f73565b61508a60808301856141dd565b61509760a0830184613990565b979650505050505050565b7f4e487b7100000000000000000000000000000000000000000000000000000000600052601160045260246000fd5b60006150dc82613986565b91506150e783613986565b9250827fffffffffffffffffffffffffffffffffffffffffffffffffffffffffffffffff0382111561511c5761511b6150a2565b5b828201905092915050565b600060408201905061513c6000830185613990565b6151496020830184613990565b9392505050565b600060608201905061516560008301866141dd565b6151726020830185613990565b61517f6040830184614aa4565b949350505050565b600061519282613986565b915061519d83613986565b9250828210156151b0576151af6150a2565b5b828203905092915050565b7f476f7665726e6f723a2070726f706f73657220766f7465732062656c6f77207060008201527f726f706f73616c207468726573686f6c64000000000000000000000000000000602082015250565b6000615217603183613d11565b9150615222826151bb565b604082019050919050565b600060208201905081810360008301526152468161520a565b9050919050565b7f476f7665726e6f723a20696e76616c69642070726f706f73616c206c656e677460008201527f6800000000000000000000000000000000000000000000000000000000000000602082015250565b60006152a9602183613d11565b91506152b48261524d565b604082019050919050565b600060208201905081810360008301526152d88161529c565b9050919050565b7f476f7665726e6f723a20656d7074792070726f706f73616c0000000000000000600082015250565b6000615315601883613d11565b9150615320826152df565b602082019050919050565b6000602082019050818103600083015261534481615308565b9050919050565b7f476f7665726e6f723a2070726f706f73616c20616c726561647920657869737460008201527f7300000000000000000000000000000000000000000000000000000000000000602082015250565b60006153a7602183613d11565b91506153b28261534b565b604082019050919050565b600060208201905081810360008301526153d68161539a565b9050919050565b600067ffffffffffffffff82169050919050565b60006153fc826153dd565b9150615407836153dd565b92508267ffffffffffffffff03821115615424576154236150a2565b5b828201905092915050565b600081519050919050565b600082825260208201905092915050565b6000819050602082019050919050565b600082825260208201905092915050565b600061547782613d06565b615481818561545b565b9350615491818560208601613d22565b61549a81613a89565b840191505092915050565b60006154b1838361546c565b905092915050565b6000602082019050919050565b60006154d18261542f565b6154db818561543a565b9350836020820285016154ed8561544b565b8060005b85811015615529578484038952815161550a85826154a5565b9450615515836154b9565b925060208a019950506001810190506154f1565b50829750879550505050505092915050565b600061555661555161554c846153dd565b6149e1565b613986565b9050919050565b6155668161553b565b82525050565b600061012082019050615582600083018c613990565b61558f602083018b6148e0565b81810360408301526155a1818a614d07565b905081810360608301526155b58189614dc5565b905081810360808301526155c981886154c6565b905081810360a08301526155dd8187614ec5565b90506155ec60c083018661555d565b6155f960e083018561555d565b81810361010083015261560c8184613d55565b90509a9950505050505050505050565b600060808201905081810360008301526156368187614d07565b9050818103602083015261564a8186614dc5565b9050818103604083015261565e8185614ec5565b905061566d60608301846141dd565b95945050505050565b600061568182613986565b915061568c83613986565b9250817fffffffffffffffffffffffffffffffffffffffffffffffffffffffffffffffff04831182151516156156c5576156c46150a2565b5b828202905092915050565b7f4e487b7100000000000000000000000000000000000000000000000000000000600052601260045260246000fd5b600061570a82613986565b915061571583613986565b925082615725576157246156d0565b5b828204905092915050565b7f476f7665726e6f723a20766f7465206e6f742063757272656e746c792061637460008201527f6976650000000000000000000000000000000000000000000000000000000000602082015250565b600061578c602383613d11565b915061579782615730565b604082019050919050565b600060208201905081810360008301526157bb8161577f565b9050919050565b60006080820190506157d76000830187613990565b6157e46020830186614aa4565b6157f16040830185613990565b81810360608301526158038184613d55565b905095945050505050565b600082825260208201905092915050565b600061582a82614e4f565b615834818561580e565b9350615844818560208601613d22565b61584d81613a89565b840191505092915050565b600060a08201905061586d6000830188613990565b61587a6020830187614aa4565b6158876040830186613990565b81810360608301526158998185613d55565b905081810360808301526158ad818461581f565b90509695505050505050565b7f476f7665726e6f72566f74657351756f72756d4672616374696f6e3a2071756f60008201527f72756d4e756d657261746f72206f7665722071756f72756d44656e6f6d696e6160208201527f746f720000000000000000000000000000000000000000000000000000000000604082015250565b600061593b604383613d11565b9150615946826158b9565b606082019050919050565b6000602082019050818103600083015261596a8161592e565b9050919050565b7f4e487b7100000000000000000000000000000000000000000000000000000000600052603260045260246000fd5b60006159ab82613986565b91507fffffffffffffffffffffffffffffffffffffffffffffffffffffffffffffffff8214156159de576159dd6150a2565b5b600182019050919050565b6159f281613950565b81146159fd57600080fd5b50565b600081519050615a0f816159e9565b92915050565b600060208284031215615a2b57615a2a6138c1565b5b6000615a3984828501615a00565b91505092915050565b7f53616665436173743a2076616c756520646f65736e27742066697420696e203660008201527f3420626974730000000000000000000000000000000000000000000000000000602082015250565b6000615a9e602683613d11565b9150615aa982615a42565b604082019050919050565b60006020820190508181036000830152615acd81615a91565b9050919050565b6000604082019050615ae960008301856148e0565b615af66020830184613990565b9392505050565b6000604082019050615b1260008301856148e0565b615b1f60208301846148e0565b9392505050565b7f476f7665726e6f7253657474696e67733a20766f74696e6720706572696f642060008201527f746f6f206c6f7700000000000000000000000000000000000000000000000000602082015250565b6000615b82602783613d11565b9150615b8d82615b26565b604082019050919050565b60006020820190508181036000830152615bb181615b75565b9050919050565b600081905092915050565b7f1901000000000000000000000000000000000000000000000000000000000000600082015250565b6000615bf9600283615bb8565b9150615c0482615bc3565b600282019050919050565b6000819050919050565b615c2a615c2582613bc5565b615c0f565b82525050565b6000615c3b82615bec565b9150615c478285615c19565b602082019150615c578284615c19565b6020820191508190509392505050565b6000608082019050615c7c60008301876141dd565b615c896020830186614aa4565b615c9660408301856141dd565b615ca360608301846141dd565b95945050505050565b7f45434453413a20696e76616c6964207369676e61747572650000000000000000600082015250565b6000615ce2601883613d11565b9150615ced82615cac565b602082019050919050565b60006020820190508181036000830152615d1181615cd5565b9050919050565b7f45434453413a20696e76616c6964207369676e6174757265206c656e67746800600082015250565b6000615d4e601f83613d11565b9150615d5982615d18565b602082019050919050565b60006020820190508181036000830152615d7d81615d41565b9050919050565b7f45434453413a20696e76616c6964207369676e6174757265202773272076616c60008201527f7565000000000000000000000000000000000000000000000000000000000000602082015250565b6000615de0602283613d11565b9150615deb82615d84565b604082019050919050565b60006020820190508181036000830152615e0f81615dd3565b9050919050565b7f45434453413a20696e76616c6964207369676e6174757265202776272076616c60008201527f7565000000000000000000000000000000000000000000000000000000000000602082015250565b6000615e72602283613d11565b9150615e7d82615e16565b604082019050919050565b60006020820190508181036000830152615ea181615e65565b9050919050565b7f476f7665726e6f72566f74696e6753696d706c653a20766f746520616c72656160008201527f6479206361737400000000000000000000000000000000000000000000000000602082015250565b6000615f04602783613d11565b9150615f0f82615ea8565b604082019050919050565b60006020820190508181036000830152615f3381615ef7565b9050919050565b7f476f7665726e6f72566f74696e6753696d706c653a20696e76616c696420766160008201527f6c756520666f7220656e756d20566f7465547970650000000000000000000000602082015250565b6000615f96603583613d11565b9150615fa182615f3a565b604082019050919050565b60006020820190508181036000830152615fc581615f89565b9050919050565b7f476f7665726e6f723a20756e6b6e6f776e2070726f706f73616c206964000000600082015250565b6000616002601d83613d11565b915061600d82615fcc565b602082019050919050565b6000602082019050818103600083015261603181615ff5565b9050919050565b7f416464726573733a20696e73756666696369656e742062616c616e636520666f60008201527f722063616c6c0000000000000000000000000000000000000000000000000000602082015250565b6000616094602683613d11565b915061609f82616038565b604082019050919050565b600060208201905081810360008301526160c381616087565b9050919050565b7f416464726573733a2063616c6c20746f206e6f6e2d636f6e7472616374000000600082015250565b6000616100601d83613d11565b915061610b826160ca565b602082019050919050565b6000602082019050818103600083015261612f816160f3565b9050919050565b600061614182614e4f565b61614b8185614a5b565b935061615b818560208601613d22565b80840191505092915050565b60006161738284616136565b915081905092915050565b600060a08201905061619360008301886141dd565b6161a060208301876141dd565b6161ad60408301866141dd565b6161ba6060830185613990565b6161c760808301846148e0565b969550505050505056fe416464726573733a206c6f772d6c6576656c2063616c6c20776974682076616c7565206661696c6564a2646970667358221220ebbfc7f587c159dba3dd28c8726ea247674009c544f878718357048de4212a8764736f6c63430008080033",
  "linkReferences": {},
  "deployedLinkReferences": {}
}