{
  "_format": "hh-sol-artifact-1",
  "contractName": "GovernorContract",
  "sourceName": "contracts/governance-standard/GovernorContract.sol",
  "abi": [
    {
      "inputs": [
        {
          "internalType": "contract TimelockController",
          "name": "_timelock",
          "type": "address"
        },
        {
          "internalType": "contract IVotes",
          "name": "_token",
          "type": "address"
        },
        {
          "internalType": "uint256",
          "name": "_initialVotingDelay",
          "type": "uint256"
        },
        {
          "internalType": "uint256",
          "name": "_initialVotingPeriod",
          "type": "uint256"
        },
        {
          "internalType": "uint256",
          "name": "_quorumPercentage",
          "type": "uint256"
        }
      ],
      "stateMutability": "nonpayable",
      "type": "constructor"
    },
    {
      "inputs": [],
      "name": "Empty",
      "type": "error"
    },
    {
      "anonymous": false,
      "inputs": [
        {
          "indexed": false,
          "internalType": "uint256",
          "name": "proposalId",
          "type": "uint256"
        }
      ],
      "name": "ProposalCanceled",
      "type": "event"
    },
    {
      "anonymous": false,
      "inputs": [
        {
          "indexed": false,
          "internalType": "uint256",
          "name": "proposalId",
          "type": "uint256"
        },
        {
          "indexed": false,
          "internalType": "address",
          "name": "proposer",
          "type": "address"
        },
        {
          "indexed": false,
          "internalType": "address[]",
          "name": "targets",
          "type": "address[]"
        },
        {
          "indexed": false,
          "internalType": "uint256[]",
          "name": "values",
          "type": "uint256[]"
        },
        {
          "indexed": false,
          "internalType": "string[]",
          "name": "signatures",
          "type": "string[]"
        },
        {
          "indexed": false,
          "internalType": "bytes[]",
          "name": "calldatas",
          "type": "bytes[]"
        },
        {
          "indexed": false,
          "internalType": "uint256",
          "name": "startBlock",
          "type": "uint256"
        },
        {
          "indexed": false,
          "internalType": "uint256",
          "name": "endBlock",
          "type": "uint256"
        },
        {
          "indexed": false,
          "internalType": "string",
          "name": "description",
          "type": "string"
        }
      ],
      "name": "ProposalCreated",
      "type": "event"
    },
    {
      "anonymous": false,
      "inputs": [
        {
          "indexed": false,
          "internalType": "uint256",
          "name": "proposalId",
          "type": "uint256"
        }
      ],
      "name": "ProposalExecuted",
      "type": "event"
    },
    {
      "anonymous": false,
      "inputs": [
        {
          "indexed": false,
          "internalType": "uint256",
          "name": "proposalId",
          "type": "uint256"
        },
        {
          "indexed": false,
          "internalType": "uint256",
          "name": "eta",
          "type": "uint256"
        }
      ],
      "name": "ProposalQueued",
      "type": "event"
    },
    {
      "anonymous": false,
      "inputs": [
        {
          "indexed": false,
          "internalType": "uint256",
          "name": "oldProposalThreshold",
          "type": "uint256"
        },
        {
          "indexed": false,
          "internalType": "uint256",
          "name": "newProposalThreshold",
          "type": "uint256"
        }
      ],
      "name": "ProposalThresholdSet",
      "type": "event"
    },
    {
      "anonymous": false,
      "inputs": [
        {
          "indexed": false,
          "internalType": "uint256",
          "name": "oldQuorumNumerator",
          "type": "uint256"
        },
        {
          "indexed": false,
          "internalType": "uint256",
          "name": "newQuorumNumerator",
          "type": "uint256"
        }
      ],
      "name": "QuorumNumeratorUpdated",
      "type": "event"
    },
    {
      "anonymous": false,
      "inputs": [
        {
          "indexed": false,
          "internalType": "address",
          "name": "oldTimelock",
          "type": "address"
        },
        {
          "indexed": false,
          "internalType": "address",
          "name": "newTimelock",
          "type": "address"
        }
      ],
      "name": "TimelockChange",
      "type": "event"
    },
    {
      "anonymous": false,
      "inputs": [
        {
          "indexed": true,
          "internalType": "address",
          "name": "voter",
          "type": "address"
        },
        {
          "indexed": false,
          "internalType": "uint256",
          "name": "proposalId",
          "type": "uint256"
        },
        {
          "indexed": false,
          "internalType": "uint8",
          "name": "support",
          "type": "uint8"
        },
        {
          "indexed": false,
          "internalType": "uint256",
          "name": "weight",
          "type": "uint256"
        },
        {
          "indexed": false,
          "internalType": "string",
          "name": "reason",
          "type": "string"
        }
      ],
      "name": "VoteCast",
      "type": "event"
    },
    {
      "anonymous": false,
      "inputs": [
        {
          "indexed": true,
          "internalType": "address",
          "name": "voter",
          "type": "address"
        },
        {
          "indexed": false,
          "internalType": "uint256",
          "name": "proposalId",
          "type": "uint256"
        },
        {
          "indexed": false,
          "internalType": "uint8",
          "name": "support",
          "type": "uint8"
        },
        {
          "indexed": false,
          "internalType": "uint256",
          "name": "weight",
          "type": "uint256"
        },
        {
          "indexed": false,
          "internalType": "string",
          "name": "reason",
          "type": "string"
        },
        {
          "indexed": false,
          "internalType": "bytes",
          "name": "params",
          "type": "bytes"
        }
      ],
      "name": "VoteCastWithParams",
      "type": "event"
    },
    {
      "anonymous": false,
      "inputs": [
        {
          "indexed": false,
          "internalType": "uint256",
          "name": "oldVotingDelay",
          "type": "uint256"
        },
        {
          "indexed": false,
          "internalType": "uint256",
          "name": "newVotingDelay",
          "type": "uint256"
        }
      ],
      "name": "VotingDelaySet",
      "type": "event"
    },
    {
      "anonymous": false,
      "inputs": [
        {
          "indexed": false,
          "internalType": "uint256",
          "name": "oldVotingPeriod",
          "type": "uint256"
        },
        {
          "indexed": false,
          "internalType": "uint256",
          "name": "newVotingPeriod",
          "type": "uint256"
        }
      ],
      "name": "VotingPeriodSet",
      "type": "event"
    },
    {
      "inputs": [],
      "name": "BALLOT_TYPEHASH",
      "outputs": [
        {
          "internalType": "bytes32",
          "name": "",
          "type": "bytes32"
        }
      ],
      "stateMutability": "view",
      "type": "function"
    },
    {
      "inputs": [],
      "name": "COUNTING_MODE",
      "outputs": [
        {
          "internalType": "string",
          "name": "",
          "type": "string"
        }
      ],
      "stateMutability": "pure",
      "type": "function"
    },
    {
      "inputs": [],
      "name": "EXTENDED_BALLOT_TYPEHASH",
      "outputs": [
        {
          "internalType": "bytes32",
          "name": "",
          "type": "bytes32"
        }
      ],
      "stateMutability": "view",
      "type": "function"
    },
    {
      "inputs": [
        {
          "internalType": "uint256",
          "name": "proposalId",
          "type": "uint256"
        },
        {
          "internalType": "uint8",
          "name": "support",
          "type": "uint8"
        }
      ],
      "name": "castVote",
      "outputs": [
        {
          "internalType": "uint256",
          "name": "",
          "type": "uint256"
        }
      ],
      "stateMutability": "nonpayable",
      "type": "function"
    },
    {
      "inputs": [
        {
          "internalType": "uint256",
          "name": "proposalId",
          "type": "uint256"
        },
        {
          "internalType": "uint8",
          "name": "support",
          "type": "uint8"
        },
        {
          "internalType": "uint8",
          "name": "v",
          "type": "uint8"
        },
        {
          "internalType": "bytes32",
          "name": "r",
          "type": "bytes32"
        },
        {
          "internalType": "bytes32",
          "name": "s",
          "type": "bytes32"
        }
      ],
      "name": "castVoteBySig",
      "outputs": [
        {
          "internalType": "uint256",
          "name": "",
          "type": "uint256"
        }
      ],
      "stateMutability": "nonpayable",
      "type": "function"
    },
    {
      "inputs": [
        {
          "internalType": "uint256",
          "name": "proposalId",
          "type": "uint256"
        },
        {
          "internalType": "uint8",
          "name": "support",
          "type": "uint8"
        },
        {
          "internalType": "string",
          "name": "reason",
          "type": "string"
        }
      ],
      "name": "castVoteWithReason",
      "outputs": [
        {
          "internalType": "uint256",
          "name": "",
          "type": "uint256"
        }
      ],
      "stateMutability": "nonpayable",
      "type": "function"
    },
    {
      "inputs": [
        {
          "internalType": "uint256",
          "name": "proposalId",
          "type": "uint256"
        },
        {
          "internalType": "uint8",
          "name": "support",
          "type": "uint8"
        },
        {
          "internalType": "string",
          "name": "reason",
          "type": "string"
        },
        {
          "internalType": "bytes",
          "name": "params",
          "type": "bytes"
        }
      ],
      "name": "castVoteWithReasonAndParams",
      "outputs": [
        {
          "internalType": "uint256",
          "name": "",
          "type": "uint256"
        }
      ],
      "stateMutability": "nonpayable",
      "type": "function"
    },
    {
      "inputs": [
        {
          "internalType": "uint256",
          "name": "proposalId",
          "type": "uint256"
        },
        {
          "internalType": "uint8",
          "name": "support",
          "type": "uint8"
        },
        {
          "internalType": "string",
          "name": "reason",
          "type": "string"
        },
        {
          "internalType": "bytes",
          "name": "params",
          "type": "bytes"
        },
        {
          "internalType": "uint8",
          "name": "v",
          "type": "uint8"
        },
        {
          "internalType": "bytes32",
          "name": "r",
          "type": "bytes32"
        },
        {
          "internalType": "bytes32",
          "name": "s",
          "type": "bytes32"
        }
      ],
      "name": "castVoteWithReasonAndParamsBySig",
      "outputs": [
        {
          "internalType": "uint256",
          "name": "",
          "type": "uint256"
        }
      ],
      "stateMutability": "nonpayable",
      "type": "function"
    },
    {
      "inputs": [
        {
          "internalType": "address[]",
          "name": "targets",
          "type": "address[]"
        },
        {
          "internalType": "uint256[]",
          "name": "values",
          "type": "uint256[]"
        },
        {
          "internalType": "bytes[]",
          "name": "calldatas",
          "type": "bytes[]"
        },
        {
          "internalType": "bytes32",
          "name": "descriptionHash",
          "type": "bytes32"
        }
      ],
      "name": "execute",
      "outputs": [
        {
          "internalType": "uint256",
          "name": "",
          "type": "uint256"
        }
      ],
      "stateMutability": "payable",
      "type": "function"
    },
    {
      "inputs": [
        {
          "internalType": "address",
          "name": "account",
          "type": "address"
        },
        {
          "internalType": "uint256",
          "name": "blockNumber",
          "type": "uint256"
        }
      ],
      "name": "getVotes",
      "outputs": [
        {
          "internalType": "uint256",
          "name": "",
          "type": "uint256"
        }
      ],
      "stateMutability": "view",
      "type": "function"
    },
    {
      "inputs": [
        {
          "internalType": "address",
          "name": "account",
          "type": "address"
        },
        {
          "internalType": "uint256",
          "name": "blockNumber",
          "type": "uint256"
        },
        {
          "internalType": "bytes",
          "name": "params",
          "type": "bytes"
        }
      ],
      "name": "getVotesWithParams",
      "outputs": [
        {
          "internalType": "uint256",
          "name": "",
          "type": "uint256"
        }
      ],
      "stateMutability": "view",
      "type": "function"
    },
    {
      "inputs": [
        {
          "internalType": "uint256",
          "name": "proposalId",
          "type": "uint256"
        },
        {
          "internalType": "address",
          "name": "account",
          "type": "address"
        }
      ],
      "name": "hasVoted",
      "outputs": [
        {
          "internalType": "bool",
          "name": "",
          "type": "bool"
        }
      ],
      "stateMutability": "view",
      "type": "function"
    },
    {
      "inputs": [
        {
          "internalType": "address[]",
          "name": "targets",
          "type": "address[]"
        },
        {
          "internalType": "uint256[]",
          "name": "values",
          "type": "uint256[]"
        },
        {
          "internalType": "bytes[]",
          "name": "calldatas",
          "type": "bytes[]"
        },
        {
          "internalType": "bytes32",
          "name": "descriptionHash",
          "type": "bytes32"
        }
      ],
      "name": "hashProposal",
      "outputs": [
        {
          "internalType": "uint256",
          "name": "",
          "type": "uint256"
        }
      ],
      "stateMutability": "pure",
      "type": "function"
    },
    {
      "inputs": [],
      "name": "name",
      "outputs": [
        {
          "internalType": "string",
          "name": "",
          "type": "string"
        }
      ],
      "stateMutability": "view",
      "type": "function"
    },
    {
      "inputs": [
        {
          "internalType": "address",
          "name": "",
          "type": "address"
        },
        {
          "internalType": "address",
          "name": "",
          "type": "address"
        },
        {
          "internalType": "uint256[]",
          "name": "",
          "type": "uint256[]"
        },
        {
          "internalType": "uint256[]",
          "name": "",
          "type": "uint256[]"
        },
        {
          "internalType": "bytes",
          "name": "",
          "type": "bytes"
        }
      ],
      "name": "onERC1155BatchReceived",
      "outputs": [
        {
          "internalType": "bytes4",
          "name": "",
          "type": "bytes4"
        }
      ],
      "stateMutability": "nonpayable",
      "type": "function"
    },
    {
      "inputs": [
        {
          "internalType": "address",
          "name": "",
          "type": "address"
        },
        {
          "internalType": "address",
          "name": "",
          "type": "address"
        },
        {
          "internalType": "uint256",
          "name": "",
          "type": "uint256"
        },
        {
          "internalType": "uint256",
          "name": "",
          "type": "uint256"
        },
        {
          "internalType": "bytes",
          "name": "",
          "type": "bytes"
        }
      ],
      "name": "onERC1155Received",
      "outputs": [
        {
          "internalType": "bytes4",
          "name": "",
          "type": "bytes4"
        }
      ],
      "stateMutability": "nonpayable",
      "type": "function"
    },
    {
      "inputs": [
        {
          "internalType": "address",
          "name": "",
          "type": "address"
        },
        {
          "internalType": "address",
          "name": "",
          "type": "address"
        },
        {
          "internalType": "uint256",
          "name": "",
          "type": "uint256"
        },
        {
          "internalType": "bytes",
          "name": "",
          "type": "bytes"
        }
      ],
      "name": "onERC721Received",
      "outputs": [
        {
          "internalType": "bytes4",
          "name": "",
          "type": "bytes4"
        }
      ],
      "stateMutability": "nonpayable",
      "type": "function"
    },
    {
      "inputs": [
        {
          "internalType": "uint256",
          "name": "proposalId",
          "type": "uint256"
        }
      ],
      "name": "proposalDeadline",
      "outputs": [
        {
          "internalType": "uint256",
          "name": "",
          "type": "uint256"
        }
      ],
      "stateMutability": "view",
      "type": "function"
    },
    {
      "inputs": [
        {
          "internalType": "uint256",
          "name": "proposalId",
          "type": "uint256"
        }
      ],
      "name": "proposalEta",
      "outputs": [
        {
          "internalType": "uint256",
          "name": "",
          "type": "uint256"
        }
      ],
      "stateMutability": "view",
      "type": "function"
    },
    {
      "inputs": [
        {
          "internalType": "uint256",
          "name": "proposalId",
          "type": "uint256"
        }
      ],
      "name": "proposalSnapshot",
      "outputs": [
        {
          "internalType": "uint256",
          "name": "",
          "type": "uint256"
        }
      ],
      "stateMutability": "view",
      "type": "function"
    },
    {
      "inputs": [],
      "name": "proposalThreshold",
      "outputs": [
        {
          "internalType": "uint256",
          "name": "",
          "type": "uint256"
        }
      ],
      "stateMutability": "view",
      "type": "function"
    },
    {
      "inputs": [
        {
          "internalType": "uint256",
          "name": "proposalId",
          "type": "uint256"
        }
      ],
      "name": "proposalVotes",
      "outputs": [
        {
          "internalType": "uint256",
          "name": "againstVotes",
          "type": "uint256"
        },
        {
          "internalType": "uint256",
          "name": "forVotes",
          "type": "uint256"
        },
        {
          "internalType": "uint256",
          "name": "abstainVotes",
          "type": "uint256"
        }
      ],
      "stateMutability": "view",
      "type": "function"
    },
    {
      "inputs": [
        {
          "internalType": "address[]",
          "name": "targets",
          "type": "address[]"
        },
        {
          "internalType": "uint256[]",
          "name": "values",
          "type": "uint256[]"
        },
        {
          "internalType": "bytes[]",
          "name": "calldatas",
          "type": "bytes[]"
        },
        {
          "internalType": "string",
          "name": "description",
          "type": "string"
        }
      ],
      "name": "propose",
      "outputs": [
        {
          "internalType": "uint256",
          "name": "",
          "type": "uint256"
        }
      ],
      "stateMutability": "nonpayable",
      "type": "function"
    },
    {
      "inputs": [
        {
          "internalType": "address[]",
          "name": "targets",
          "type": "address[]"
        },
        {
          "internalType": "uint256[]",
          "name": "values",
          "type": "uint256[]"
        },
        {
          "internalType": "bytes[]",
          "name": "calldatas",
          "type": "bytes[]"
        },
        {
          "internalType": "bytes32",
          "name": "descriptionHash",
          "type": "bytes32"
        }
      ],
      "name": "queue",
      "outputs": [
        {
          "internalType": "uint256",
          "name": "",
          "type": "uint256"
        }
      ],
      "stateMutability": "nonpayable",
      "type": "function"
    },
    {
      "inputs": [
        {
          "internalType": "uint256",
          "name": "blockNumber",
          "type": "uint256"
        }
      ],
      "name": "quorum",
      "outputs": [
        {
          "internalType": "uint256",
          "name": "",
          "type": "uint256"
        }
      ],
      "stateMutability": "view",
      "type": "function"
    },
    {
      "inputs": [],
      "name": "quorumDenominator",
      "outputs": [
        {
          "internalType": "uint256",
          "name": "",
          "type": "uint256"
        }
      ],
      "stateMutability": "view",
      "type": "function"
    },
    {
      "inputs": [],
      "name": "quorumNumerator",
      "outputs": [
        {
          "internalType": "uint256",
          "name": "",
          "type": "uint256"
        }
      ],
      "stateMutability": "view",
      "type": "function"
    },
    {
      "inputs": [
        {
          "internalType": "address",
          "name": "target",
          "type": "address"
        },
        {
          "internalType": "uint256",
          "name": "value",
          "type": "uint256"
        },
        {
          "internalType": "bytes",
          "name": "data",
          "type": "bytes"
        }
      ],
      "name": "relay",
      "outputs": [],
      "stateMutability": "nonpayable",
      "type": "function"
    },
    {
      "inputs": [
        {
          "internalType": "uint256",
          "name": "newProposalThreshold",
          "type": "uint256"
        }
      ],
      "name": "setProposalThreshold",
      "outputs": [],
      "stateMutability": "nonpayable",
      "type": "function"
    },
    {
      "inputs": [
        {
          "internalType": "uint256",
          "name": "newVotingDelay",
          "type": "uint256"
        }
      ],
      "name": "setVotingDelay",
      "outputs": [],
      "stateMutability": "nonpayable",
      "type": "function"
    },
    {
      "inputs": [
        {
          "internalType": "uint256",
          "name": "newVotingPeriod",
          "type": "uint256"
        }
      ],
      "name": "setVotingPeriod",
      "outputs": [],
      "stateMutability": "nonpayable",
      "type": "function"
    },
    {
      "inputs": [
        {
          "internalType": "uint256",
          "name": "proposalId",
          "type": "uint256"
        }
      ],
      "name": "state",
      "outputs": [
        {
          "internalType": "enum IGovernor.ProposalState",
          "name": "",
          "type": "uint8"
        }
      ],
      "stateMutability": "view",
      "type": "function"
    },
    {
      "inputs": [
        {
          "internalType": "bytes4",
          "name": "interfaceId",
          "type": "bytes4"
        }
      ],
      "name": "supportsInterface",
      "outputs": [
        {
          "internalType": "bool",
          "name": "",
          "type": "bool"
        }
      ],
      "stateMutability": "view",
      "type": "function"
    },
    {
      "inputs": [],
      "name": "timelock",
      "outputs": [
        {
          "internalType": "address",
          "name": "",
          "type": "address"
        }
      ],
      "stateMutability": "view",
      "type": "function"
    },
    {
      "inputs": [],
      "name": "token",
      "outputs": [
        {
          "internalType": "contract IVotes",
          "name": "",
          "type": "address"
        }
      ],
      "stateMutability": "view",
      "type": "function"
    },
    {
      "inputs": [
        {
          "internalType": "uint256",
          "name": "newQuorumNumerator",
          "type": "uint256"
        }
      ],
      "name": "updateQuorumNumerator",
      "outputs": [],
      "stateMutability": "nonpayable",
      "type": "function"
    },
    {
      "inputs": [
        {
          "internalType": "contract TimelockController",
          "name": "newTimelock",
          "type": "address"
        }
      ],
      "name": "updateTimelock",
      "outputs": [],
      "stateMutability": "nonpayable",
      "type": "function"
    },
    {
      "inputs": [],
      "name": "version",
      "outputs": [
        {
          "internalType": "string",
          "name": "",
          "type": "string"
        }
      ],
      "stateMutability": "view",
      "type": "function"
    },
    {
      "inputs": [],
      "name": "votingDelay",
      "outputs": [
        {
          "internalType": "uint256",
          "name": "",
          "type": "uint256"
        }
      ],
      "stateMutability": "view",
      "type": "function"
    },
    {
      "inputs": [],
      "name": "votingPeriod",
      "outputs": [
        {
          "internalType": "uint256",
          "name": "",
          "type": "uint256"
        }
      ],
      "stateMutability": "view",
      "type": "function"
    },
    {
      "stateMutability": "payable",
      "type": "receive"
    }
  ],
  "bytecode": "0x6101606040523480156200001257600080fd5b5060405162004230380380620042308339810160408190526200003591620004b6565b808486858560006040518060400160405280601081526020016f11dbdd995c9b9bdc90dbdb9d1c9858dd60821b81525080620000766200018060201b60201c565b815160208084019190912082518383012060e08290526101008190524660a0818152604080517f8b73c3c69bb8fe3d512ecc4cf759cc79239f7b179b0ffacaa9a75d522b39400f81880181905281830187905260608201869052608082019490945230818401528151808203909301835260c00190528051940193909320919290916080523060601b60c05261012052505082516200011f9250600091506020840190620003f7565b506200012d9050836200019b565b6200013882620001dc565b620001438162000283565b5050506200015781620002c460201b60201c565b5060601b6001600160601b0319166101405262000174816200032d565b5050505050506200054b565b6040805180820190915260018152603160f81b602082015290565b60045460408051918252602082018390527fc565b045403dc03c2eea82b81a0465edad9e2e7fc4d97e11421c209da93d7a93910160405180910390a1600455565b60008111620002425760405162461bcd60e51b815260206004820152602760248201527f476f7665726e6f7253657474696e67733a20766f74696e6720706572696f6420604482015266746f6f206c6f7760c81b60648201526084015b60405180910390fd5b60055460408051918252602082018390527f7e3f7f0708a84de9203036abaa450dccc85ad5ff52f78c170f3edb55cf5e8828910160405180910390a1600555565b60065460408051918252602082018390527fccb45da8d5717e6c4544694297c4ba5cf151d455c9bb0ed4fc7a38411bc05461910160405180910390a1600655565b600854604080516001600160a01b03928316815291831660208301527f08f74ea46ef7894f65eabfb5e6e695de773a000b47c529ab559178069b226401910160405180910390a1600880546001600160a01b0319166001600160a01b0392909216919091179055565b6064811115620003b25760405162461bcd60e51b815260206004820152604360248201527f476f7665726e6f72566f74657351756f72756d4672616374696f6e3a2071756f60448201527f72756d4e756d657261746f72206f7665722071756f72756d44656e6f6d696e616064820152623a37b960e91b608482015260a40162000239565b600a80549082905560408051828152602081018490527f0553476bf02ef2726e8ce5ced78d63e26e602e4a2257b1f559418e24b4633997910160405180910390a15050565b82805462000405906200050e565b90600052602060002090601f01602090048101928262000429576000855562000474565b82601f106200044457805160ff191683800117855562000474565b8280016001018555821562000474579182015b828111156200047457825182559160200191906001019062000457565b506200048292915062000486565b5090565b5b8082111562000482576000815560010162000487565b6001600160a01b0381168114620004b357600080fd5b50565b600080600080600060a08688031215620004cf57600080fd5b8551620004dc816200049d565b6020870151909550620004ef816200049d565b6040870151606088015160809098015196999198509695945092505050565b600181811c908216806200052357607f821691505b602082108114156200054557634e487b7160e01b600052602260045260246000fd5b50919050565b60805160a05160c05160601c60e05161010051610120516101405160601c613c76620005ba6000396000818161093201528181611a1f015261223e015260006125b201526000612601015260006125dc015260006125350152600061255f015260006125890152613c766000f3fe6080604052600436106102bf5760003560e01c80637d5e81e21161016e578063c59057e4116100cb578063eb9019d41161007f578063f23a6e6111610064578063f23a6e61146108bb578063f8ce560a14610900578063fc0c546a1461092057600080fd5b8063eb9019d41461087b578063ece40cc11461089b57600080fd5b8063dd4e2ba5116100b0578063dd4e2ba5146107e1578063deaaa7cc14610827578063ea0217cf1461085b57600080fd5b8063c59057e41461078f578063d33219b4146107af57600080fd5b8063ab58fb8e11610122578063bc197c8111610107578063bc197c811461070a578063c01f9e371461074f578063c28bc2fa1461076f57600080fd5b8063ab58fb8e146106d5578063b58131b0146106f557600080fd5b80639a802a6d116101535780639a802a6d14610680578063a7713a70146106a0578063a890c910146106b557600080fd5b80637d5e81e21461064c57806397c3d3341461066c57600080fd5b80633932abb11161021c57806354fd4d50116101d05780635f398a14116101b55780635f398a14146105ec57806370b0f6601461060c5780637b3c71d31461062c57600080fd5b806354fd4d501461058657806356781388146105cc57600080fd5b80633e4f49e6116102015780633e4f49e6146104ba57806343859632146104e7578063544ffc9c1461053157600080fd5b80633932abb1146104855780633bccf4fd1461049a57600080fd5b8063150b7a02116102735780632656227d116102585780632656227d1461041e5780632d63f693146104315780632fe3e2611461045157600080fd5b8063150b7a02146103a1578063160cbed7146103fe57600080fd5b806303420181116102a4578063034201811461033f57806306f3f9e61461035f57806306fdde031461037f57600080fd5b806301ffc9a7146102e757806302a251a31461031c57600080fd5b366102e257306102cd610954565b6001600160a01b0316146102e057600080fd5b005b600080fd5b3480156102f357600080fd5b50610307610302366004612e1f565b61096d565b60405190151581526020015b60405180910390f35b34801561032857600080fd5b5061033161097e565b604051908152602001610313565b34801561034b57600080fd5b5061033161035a366004612f67565b610989565b34801561036b57600080fd5b506102e061037a36600461300e565b610a81565b34801561038b57600080fd5b50610394610b45565b6040516103139190613083565b3480156103ad57600080fd5b506103e56103bc3660046130ab565b7f150b7a0200000000000000000000000000000000000000000000000000000000949350505050565b6040516001600160e01b03199091168152602001610313565b34801561040a57600080fd5b5061033161041936600461328a565b610bd7565b61033161042c36600461328a565b610e7a565b34801561043d57600080fd5b5061033161044c36600461300e565b610fa1565b34801561045d57600080fd5b506103317fb3b3f3b703cd84ce352197dcff232b1b5d3cfb2025ce47cf04742d0651f1af8881565b34801561049157600080fd5b50610331610fda565b3480156104a657600080fd5b506103316104b536600461331a565b610fe5565b3480156104c657600080fd5b506104da6104d536600461300e565b61105b565b604051610313919061337e565b3480156104f357600080fd5b506103076105023660046133a6565b60008281526007602090815260408083206001600160a01b038516845260030190915290205460ff1692915050565b34801561053d57600080fd5b5061056b61054c36600461300e565b6000908152600760205260409020805460018201546002909201549092565b60408051938452602084019290925290820152606001610313565b34801561059257600080fd5b5060408051808201909152600181527f31000000000000000000000000000000000000000000000000000000000000006020820152610394565b3480156105d857600080fd5b506103316105e73660046133d6565b611066565b3480156105f857600080fd5b50610331610607366004613402565b61108f565b34801561061857600080fd5b506102e061062736600461300e565b6110d9565b34801561063857600080fd5b50610331610647366004613486565b611195565b34801561065857600080fd5b506103316106673660046134e0565b6111e7565b34801561067857600080fd5b506064610331565b34801561068c57600080fd5b5061033161069b366004613595565b61154a565b3480156106ac57600080fd5b50600a54610331565b3480156106c157600080fd5b506102e06106d03660046135ee565b611561565b3480156106e157600080fd5b506103316106f036600461300e565b61161d565b34801561070157600080fd5b506103316116df565b34801561071657600080fd5b506103e561072536600461360b565b7fbc197c810000000000000000000000000000000000000000000000000000000095945050505050565b34801561075b57600080fd5b5061033161076a36600461300e565b6116ea565b34801561077b57600080fd5b506102e061078a36600461369f565b61171a565b34801561079b57600080fd5b506103316107aa36600461328a565b611816565b3480156107bb57600080fd5b506008546001600160a01b03165b6040516001600160a01b039091168152602001610313565b3480156107ed57600080fd5b506040805180820190915260208082527f737570706f72743d627261766f2671756f72756d3d666f722c6162737461696e90820152610394565b34801561083357600080fd5b506103317f150214d74d59b7d1e90c73fc22ef3d991dd0a76b046543d4d80ab92d2a50328f81565b34801561086757600080fd5b506102e061087636600461300e565b611850565b34801561088757600080fd5b506103316108963660046136e3565b61190c565b3480156108a757600080fd5b506102e06108b636600461300e565b61192d565b3480156108c757600080fd5b506103e56108d636600461370f565b7ff23a6e610000000000000000000000000000000000000000000000000000000095945050505050565b34801561090c57600080fd5b5061033161091b36600461300e565b6119e9565b34801561092c57600080fd5b506107c97f000000000000000000000000000000000000000000000000000000000000000081565b60006109686008546001600160a01b031690565b905090565b600061097882611ab5565b92915050565b600061096860055490565b600080610a2d610a257fb3b3f3b703cd84ce352197dcff232b1b5d3cfb2025ce47cf04742d0651f1af888c8c8c8c6040516109c5929190613778565b60405180910390208b80519060200120604051602001610a0a959493929190948552602085019390935260ff9190911660408401526060830152608082015260a00190565b60405160208183030381529060405280519060200120611af3565b868686611b5c565b9050610a738a828b8b8b8080601f0160208091040260200160405190810160405280939291908181526020018383808284376000920191909152508d9250611b7a915050565b9a9950505050505050505050565b610a89610954565b6001600160a01b0316336001600160a01b031614610aee5760405162461bcd60e51b815260206004820152601860248201527f476f7665726e6f723a206f6e6c79476f7665726e616e6365000000000000000060448201526064015b60405180910390fd5b30610af7610954565b6001600160a01b031614610b395760008036604051610b17929190613778565b604051809103902090505b80610b2d6002611cf7565b14610b3757610b22565b505b610b4281611da7565b50565b606060008054610b5490613788565b80601f0160208091040260200160405190810160405280929190818152602001828054610b8090613788565b8015610bcd5780601f10610ba257610100808354040283529160200191610bcd565b820191906000526020600020905b815481529060010190602001808311610bb057829003601f168201915b5050505050905090565b600080610be686868686611816565b90506004610bf38261105b565b6007811115610c0457610c04613368565b14610c5b5760405162461bcd60e51b815260206004820152602160248201527f476f7665726e6f723a2070726f706f73616c206e6f74207375636365737366756044820152601b60fa1b6064820152608401610ae5565b600854604080517ff27a0c9200000000000000000000000000000000000000000000000000000000815290516000926001600160a01b03169163f27a0c92916004808301926020929190829003018186803b158015610cb957600080fd5b505afa158015610ccd573d6000803e3d6000fd5b505050506040513d601f19601f82011682018060405250810190610cf191906137c3565b6008546040517fb1c5f4270000000000000000000000000000000000000000000000000000000081529192506001600160a01b03169063b1c5f42790610d44908a908a908a906000908b906004016138a5565b60206040518083038186803b158015610d5c57600080fd5b505afa158015610d70573d6000803e3d6000fd5b505050506040513d601f19601f82011682018060405250810190610d9491906137c3565b6000838152600960205260408082209290925560085491517f8f2a0bb00000000000000000000000000000000000000000000000000000000081526001600160a01b0390921691638f2a0bb091610df8918b918b918b91908b9089906004016138f3565b600060405180830381600087803b158015610e1257600080fd5b505af1158015610e26573d6000803e3d6000fd5b505050507f9a2e42fd6722813d69113e7d0079d3d940171428df7373df9c7f7617cfda2892828242610e589190613961565b6040805192835260208301919091520160405180910390a15095945050505050565b600080610e8986868686611816565b90506000610e968261105b565b90506004816007811115610eac57610eac613368565b1480610ec957506005816007811115610ec757610ec7613368565b145b610f1f5760405162461bcd60e51b815260206004820152602160248201527f476f7665726e6f723a2070726f706f73616c206e6f74207375636365737366756044820152601b60fa1b6064820152608401610ae5565b600082815260016020818152604092839020600201805460ff191690921790915590518381527f712ae1383f79ac853f8d882153778e0260ef8f03b504e2866e0593e04d2b291f910160405180910390a1610f7d8288888888611e89565b610f8a8288888888611f2b565b610f978288888888611f38565b5095945050505050565b600081815260016020908152604080832081519283019091525467ffffffffffffffff16908190525b67ffffffffffffffff1692915050565b600061096860045490565b604080517f150214d74d59b7d1e90c73fc22ef3d991dd0a76b046543d4d80ab92d2a50328f602082015290810186905260ff85166060820152600090819061103390610a2590608001610a0a565b905061105087828860405180602001604052806000815250611f71565b979650505050505050565b600061097882611f9d565b60008033905061108784828560405180602001604052806000815250611f71565b949350505050565b60008033905061105087828888888080601f0160208091040260200160405190810160405280939291908181526020018383808284376000920191909152508a9250611b7a915050565b6110e1610954565b6001600160a01b0316336001600160a01b0316146111415760405162461bcd60e51b815260206004820152601860248201527f476f7665726e6f723a206f6e6c79476f7665726e616e636500000000000000006044820152606401610ae5565b3061114a610954565b6001600160a01b03161461118c576000803660405161116a929190613778565b604051809103902090505b806111806002611cf7565b1461118a57611175565b505b610b4281612137565b6000803390506111dd86828787878080601f016020809104026020016040519081016040528093929190818152602001838380828437600092019190915250611f7192505050565b9695505050505050565b60006111f16116df565b61120033610896600143613979565b10156112745760405162461bcd60e51b815260206004820152603160248201527f476f7665726e6f723a2070726f706f73657220766f7465732062656c6f77207060448201527f726f706f73616c207468726573686f6c640000000000000000000000000000006064820152608401610ae5565b60006112898686868680519060200120611816565b905084518651146112e65760405162461bcd60e51b815260206004820152602160248201527f476f7665726e6f723a20696e76616c69642070726f706f73616c206c656e67746044820152600d60fb1b6064820152608401610ae5565b83518651146113415760405162461bcd60e51b815260206004820152602160248201527f476f7665726e6f723a20696e76616c69642070726f706f73616c206c656e67746044820152600d60fb1b6064820152608401610ae5565b60008651116113925760405162461bcd60e51b815260206004820152601860248201527f476f7665726e6f723a20656d7074792070726f706f73616c00000000000000006044820152606401610ae5565b6000818152600160209081526040918290208251918201909252815467ffffffffffffffff16908190521561142f5760405162461bcd60e51b815260206004820152602160248201527f476f7665726e6f723a2070726f706f73616c20616c726561647920657869737460448201527f73000000000000000000000000000000000000000000000000000000000000006064820152608401610ae5565b600061144161143c610fda565b612178565b61144a43612178565b6114549190613990565b9050600061146361143c61097e565b61146d9083613990565b835467ffffffffffffffff191667ffffffffffffffff8416178455905060018301805467ffffffffffffffff191667ffffffffffffffff83161790557f7d84a6263ae0d98d3329bd7b46bb4e8d6f98cd35a7adb45c274c8b7fd5ebd5e084338b8b8d5167ffffffffffffffff8111156114e8576114e8612ea8565b60405190808252806020026020018201604052801561151b57816020015b60608152602001906001900390816115065790505b508c88888e604051611535999897969594939291906139bc565b60405180910390a15091979650505050505050565b60006115578484846121fc565b90505b9392505050565b611569610954565b6001600160a01b0316336001600160a01b0316146115c95760405162461bcd60e51b815260206004820152601860248201527f476f7665726e6f723a206f6e6c79476f7665726e616e636500000000000000006044820152606401610ae5565b306115d2610954565b6001600160a01b03161461161457600080366040516115f2929190613778565b604051809103902090505b806116086002611cf7565b14611612576115fd565b505b610b42816122ba565b6008546000828152600960205260408082205490517fd45c44350000000000000000000000000000000000000000000000000000000081526004810191909152909182916001600160a01b039091169063d45c44359060240160206040518083038186803b15801561168e57600080fd5b505afa1580156116a2573d6000803e3d6000fd5b505050506040513d601f19601f820116820180604052508101906116c691906137c3565b9050806001146116d6578061155a565b60009392505050565b600061096860065490565b600081815260016020818152604080842081519283019091529091015467ffffffffffffffff1690819052610fca565b611722610954565b6001600160a01b0316336001600160a01b0316146117825760405162461bcd60e51b815260206004820152601860248201527f476f7665726e6f723a206f6e6c79476f7665726e616e636500000000000000006044820152606401610ae5565b3061178b610954565b6001600160a01b0316146117cd57600080366040516117ab929190613778565b604051809103902090505b806117c16002611cf7565b146117cb576117b6565b505b61180f8483838080601f01602080910402602001604051908101604052809392919081815260200183838082843760009201919091525088925061233b915050565b5050505050565b60008484848460405160200161182f9493929190613aae565b60408051601f19818403018152919052805160209091012095945050505050565b611858610954565b6001600160a01b0316336001600160a01b0316146118b85760405162461bcd60e51b815260206004820152601860248201527f476f7665726e6f723a206f6e6c79476f7665726e616e636500000000000000006044820152606401610ae5565b306118c1610954565b6001600160a01b03161461190357600080366040516118e1929190613778565b604051809103902090505b806118f76002611cf7565b14611901576118ec565b505b610b4281612361565b600061155a838361192860408051602081019091526000815290565b6121fc565b611935610954565b6001600160a01b0316336001600160a01b0316146119955760405162461bcd60e51b815260206004820152601860248201527f476f7665726e6f723a206f6e6c79476f7665726e616e636500000000000000006044820152606401610ae5565b3061199e610954565b6001600160a01b0316146119e057600080366040516119be929190613778565b604051809103902090505b806119d46002611cf7565b146119de576119c9565b505b610b4281612418565b60006064600a546040517f8e539e8c000000000000000000000000000000000000000000000000000000008152600481018590527f00000000000000000000000000000000000000000000000000000000000000006001600160a01b031690638e539e8c9060240160206040518083038186803b158015611a6957600080fd5b505afa158015611a7d573d6000803e3d6000fd5b505050506040513d601f19601f82011682018060405250810190611aa191906137c3565b611aab9190613af9565b6109789190613b18565b60006001600160e01b031982167f6e665ced000000000000000000000000000000000000000000000000000000001480610978575061097882612459565b6000610978611b00612528565b836040517f19010000000000000000000000000000000000000000000000000000000000006020820152602281018390526042810182905260009060620160405160208183030381529060405280519060200120905092915050565b6000806000611b6d8787878761264f565b91509150610f978161273c565b6000858152600160208190526040822090611b948861105b565b6007811115611ba557611ba5613368565b14611c185760405162461bcd60e51b815260206004820152602360248201527f476f7665726e6f723a20766f7465206e6f742063757272656e746c792061637460448201527f69766500000000000000000000000000000000000000000000000000000000006064820152608401610ae5565b6040805160208101909152815467ffffffffffffffff1690819052600090611c42908890866121fc565b9050611c5188888884886128f7565b8351611ca357866001600160a01b03167fb8e138887d0aa13bab447e82de9d5c1777041ecd21ca36ba824ff1e6c07ddda489888489604051611c969493929190613b3a565b60405180910390a2611050565b866001600160a01b03167fe2babfbac5889a709b63bb7f598b324e08bc5a4fb9ec647fb3cbc9ec07eb87128988848989604051611ce4959493929190613b62565b60405180910390a2979650505050505050565b6000611d128254600f81810b600160801b909204900b131590565b15611d49576040517f3db2a12a00000000000000000000000000000000000000000000000000000000815260040160405180910390fd5b508054600f0b6000818152600180840160205260408220805492905583547fffffffffffffffffffffffffffffffff000000000000000000000000000000001692016fffffffffffffffffffffffffffffffff169190911790915590565b6064811115611e445760405162461bcd60e51b815260206004820152604360248201527f476f7665726e6f72566f74657351756f72756d4672616374696f6e3a2071756f60448201527f72756d4e756d657261746f72206f7665722071756f72756d44656e6f6d696e6160648201527f746f720000000000000000000000000000000000000000000000000000000000608482015260a401610ae5565b600a80549082905560408051828152602081018490527f0553476bf02ef2726e8ce5ced78d63e26e602e4a2257b1f559418e24b4633997910160405180910390a15050565b30611e92610954565b6001600160a01b03161461180f5760005b8451811015611f2357306001600160a01b0316858281518110611ec857611ec8613ba8565b60200260200101516001600160a01b03161415611f1357611f13838281518110611ef457611ef4613ba8565b6020026020010151805190602001206002612a9490919063ffffffff16565b611f1c81613bbe565b9050611ea3565b505050505050565b61180f8585858585612ad9565b30611f41610954565b6001600160a01b03161461180f57600254600f81810b600160801b909204900b131561180f57600060025561180f565b6000611f9485858585611f8f60408051602081019091526000815290565b611b7a565b95945050505050565b600080611fa983612b66565b90506004816007811115611fbf57611fbf613368565b14611fca5792915050565b60008381526009602052604090205480611fe5575092915050565b6008546040517f2ab0f529000000000000000000000000000000000000000000000000000000008152600481018390526001600160a01b0390911690632ab0f5299060240160206040518083038186803b15801561204257600080fd5b505afa158015612056573d6000803e3d6000fd5b505050506040513d601f19601f8201168201806040525081019061207a9190613bd9565b15612089575060079392505050565b6008546040517f584b153e000000000000000000000000000000000000000000000000000000008152600481018390526001600160a01b039091169063584b153e9060240160206040518083038186803b1580156120e657600080fd5b505afa1580156120fa573d6000803e3d6000fd5b505050506040513d601f19601f8201168201806040525081019061211e9190613bd9565b1561212d575060059392505050565b5060029392505050565b60045460408051918252602082018390527fc565b045403dc03c2eea82b81a0465edad9e2e7fc4d97e11421c209da93d7a93910160405180910390a1600455565b600067ffffffffffffffff8211156121f85760405162461bcd60e51b815260206004820152602660248201527f53616665436173743a2076616c756520646f65736e27742066697420696e203660448201527f34206269747300000000000000000000000000000000000000000000000000006064820152608401610ae5565b5090565b6040517f3a46b1a80000000000000000000000000000000000000000000000000000000081526001600160a01b038481166004830152602482018490526000917f000000000000000000000000000000000000000000000000000000000000000090911690633a46b1a89060440160206040518083038186803b15801561228257600080fd5b505afa158015612296573d6000803e3d6000fd5b505050506040513d601f19601f8201168201806040525081019061155791906137c3565b600854604080516001600160a01b03928316815291831660208301527f08f74ea46ef7894f65eabfb5e6e695de773a000b47c529ab559178069b226401910160405180910390a1600880547fffffffffffffffffffffffff0000000000000000000000000000000000000000166001600160a01b0392909216919091179055565b6060611557848484604051806060016040528060298152602001613c1860299139612c72565b600081116123d75760405162461bcd60e51b815260206004820152602760248201527f476f7665726e6f7253657474696e67733a20766f74696e6720706572696f642060448201527f746f6f206c6f77000000000000000000000000000000000000000000000000006064820152608401610ae5565b60055460408051918252602082018390527f7e3f7f0708a84de9203036abaa450dccc85ad5ff52f78c170f3edb55cf5e8828910160405180910390a1600555565b60065460408051918252602082018390527fccb45da8d5717e6c4544694297c4ba5cf151d455c9bb0ed4fc7a38411bc05461910160405180910390a1600655565b60006001600160e01b031982167fbf26d8970000000000000000000000000000000000000000000000000000000014806124bc57506001600160e01b031982167f79dd796f00000000000000000000000000000000000000000000000000000000145b806124f057506001600160e01b031982167f4e2312e000000000000000000000000000000000000000000000000000000000145b8061097857507f01ffc9a7000000000000000000000000000000000000000000000000000000006001600160e01b0319831614610978565b6000306001600160a01b037f00000000000000000000000000000000000000000000000000000000000000001614801561258157507f000000000000000000000000000000000000000000000000000000000000000046145b156125ab57507f000000000000000000000000000000000000000000000000000000000000000090565b50604080517f00000000000000000000000000000000000000000000000000000000000000006020808301919091527f0000000000000000000000000000000000000000000000000000000000000000828401527f000000000000000000000000000000000000000000000000000000000000000060608301524660808301523060a0808401919091528351808403909101815260c0909201909252805191012090565b6000807f7fffffffffffffffffffffffffffffff5d576e7357a4501ddfe92f46681b20a08311156126865750600090506003612733565b8460ff16601b1415801561269e57508460ff16601c14155b156126af5750600090506004612733565b6040805160008082526020820180845289905260ff881692820192909252606081018690526080810185905260019060a0016020604051602081039080840390855afa158015612703573d6000803e3d6000fd5b5050604051601f1901519150506001600160a01b03811661272c57600060019250925050612733565b9150600090505b94509492505050565b600081600481111561275057612750613368565b14156127595750565b600181600481111561276d5761276d613368565b14156127bb5760405162461bcd60e51b815260206004820152601860248201527f45434453413a20696e76616c6964207369676e617475726500000000000000006044820152606401610ae5565b60028160048111156127cf576127cf613368565b141561281d5760405162461bcd60e51b815260206004820152601f60248201527f45434453413a20696e76616c6964207369676e6174757265206c656e677468006044820152606401610ae5565b600381600481111561283157612831613368565b141561288a5760405162461bcd60e51b815260206004820152602260248201527f45434453413a20696e76616c6964207369676e6174757265202773272076616c604482015261756560f01b6064820152608401610ae5565b600481600481111561289e5761289e613368565b1415610b425760405162461bcd60e51b815260206004820152602260248201527f45434453413a20696e76616c6964207369676e6174757265202776272076616c604482015261756560f01b6064820152608401610ae5565b60008581526007602090815260408083206001600160a01b0388168452600381019092529091205460ff16156129955760405162461bcd60e51b815260206004820152602760248201527f476f7665726e6f72566f74696e6753696d706c653a20766f746520616c72656160448201527f64792063617374000000000000000000000000000000000000000000000000006064820152608401610ae5565b6001600160a01b03851660009081526003820160205260408120805460ff1916600117905560ff168460ff1614156129e657828160000160008282546129db9190613961565b90915550611f239050565b60ff841660011415612a0657828160010160008282546129db9190613961565b60ff841660021415612a2657828160020160008282546129db9190613961565b60405162461bcd60e51b815260206004820152603560248201527f476f7665726e6f72566f74696e6753696d706c653a20696e76616c696420766160448201527f6c756520666f7220656e756d20566f74655479706500000000000000000000006064820152608401610ae5565b8154600160801b90819004600f0b6000818152600180860160205260409091209390935583546fffffffffffffffffffffffffffffffff908116939091011602179055565b6008546040517fe38335e50000000000000000000000000000000000000000000000000000000081526001600160a01b039091169063e38335e5903490612b2d9088908890889060009089906004016138a5565b6000604051808303818588803b158015612b4657600080fd5b505af1158015612b5a573d6000803e3d6000fd5b50505050505050505050565b6000818152600160205260408120600281015460ff1615612b8a5750600792915050565b6002810154610100900460ff1615612ba55750600292915050565b6000612bb084610fa1565b905080612bff5760405162461bcd60e51b815260206004820152601d60248201527f476f7665726e6f723a20756e6b6e6f776e2070726f706f73616c2069640000006044820152606401610ae5565b438110612c10575060009392505050565b6000612c1b856116ea565b9050438110612c2f57506001949350505050565b612c3885612daf565b8015612c57575060008581526007602052604090208054600190910154115b15612c6757506004949350505050565b506003949350505050565b606082471015612cea5760405162461bcd60e51b815260206004820152602660248201527f416464726573733a20696e73756666696369656e742062616c616e636520666f60448201527f722063616c6c00000000000000000000000000000000000000000000000000006064820152608401610ae5565b6001600160a01b0385163b612d415760405162461bcd60e51b815260206004820152601d60248201527f416464726573733a2063616c6c20746f206e6f6e2d636f6e74726163740000006044820152606401610ae5565b600080866001600160a01b03168587604051612d5d9190613bfb565b60006040518083038185875af1925050503d8060008114612d9a576040519150601f19603f3d011682016040523d82523d6000602084013e612d9f565b606091505b5091509150611050828286612de6565b600081815260076020526040812060028101546001820154612dd19190613961565b612ddd61091b85610fa1565b11159392505050565b60608315612df557508161155a565b825115612e055782518084602001fd5b8160405162461bcd60e51b8152600401610ae59190613083565b600060208284031215612e3157600080fd5b81356001600160e01b03198116811461155a57600080fd5b803560ff81168114612e5a57600080fd5b919050565b60008083601f840112612e7157600080fd5b50813567ffffffffffffffff811115612e8957600080fd5b602083019150836020828501011115612ea157600080fd5b9250929050565b634e487b7160e01b600052604160045260246000fd5b604051601f8201601f1916810167ffffffffffffffff81118282101715612ee757612ee7612ea8565b604052919050565b600067ffffffffffffffff831115612f0957612f09612ea8565b612f1c601f8401601f1916602001612ebe565b9050828152838383011115612f3057600080fd5b828260208301376000602084830101529392505050565b600082601f830112612f5857600080fd5b61155a83833560208501612eef565b60008060008060008060008060e0898b031215612f8357600080fd5b88359750612f9360208a01612e49565b9650604089013567ffffffffffffffff80821115612fb057600080fd5b612fbc8c838d01612e5f565b909850965060608b0135915080821115612fd557600080fd5b50612fe28b828c01612f47565b945050612ff160808a01612e49565b925060a0890135915060c089013590509295985092959890939650565b60006020828403121561302057600080fd5b5035919050565b60005b8381101561304257818101518382015260200161302a565b83811115613051576000848401525b50505050565b6000815180845261306f816020860160208601613027565b601f01601f19169290920160200192915050565b60208152600061155a6020830184613057565b6001600160a01b0381168114610b4257600080fd5b600080600080608085870312156130c157600080fd5b84356130cc81613096565b935060208501356130dc81613096565b925060408501359150606085013567ffffffffffffffff8111156130ff57600080fd5b61310b87828801612f47565b91505092959194509250565b600067ffffffffffffffff82111561313157613131612ea8565b5060051b60200190565b600082601f83011261314c57600080fd5b8135602061316161315c83613117565b612ebe565b82815260059290921b8401810191818101908684111561318057600080fd5b8286015b848110156131a457803561319781613096565b8352918301918301613184565b509695505050505050565b600082601f8301126131c057600080fd5b813560206131d061315c83613117565b82815260059290921b840181019181810190868411156131ef57600080fd5b8286015b848110156131a457803583529183019183016131f3565b600082601f83011261321b57600080fd5b8135602061322b61315c83613117565b82815260059290921b8401810191818101908684111561324a57600080fd5b8286015b848110156131a457803567ffffffffffffffff81111561326e5760008081fd5b61327c8986838b0101612f47565b84525091830191830161324e565b600080600080608085870312156132a057600080fd5b843567ffffffffffffffff808211156132b857600080fd5b6132c48883890161313b565b955060208701359150808211156132da57600080fd5b6132e6888389016131af565b945060408701359150808211156132fc57600080fd5b506133098782880161320a565b949793965093946060013593505050565b600080600080600060a0868803121561333257600080fd5b8535945061334260208701612e49565b935061335060408701612e49565b94979396509394606081013594506080013592915050565b634e487b7160e01b600052602160045260246000fd5b60208101600883106133a057634e487b7160e01b600052602160045260246000fd5b91905290565b600080604083850312156133b957600080fd5b8235915060208301356133cb81613096565b809150509250929050565b600080604083850312156133e957600080fd5b823591506133f960208401612e49565b90509250929050565b60008060008060006080868803121561341a57600080fd5b8535945061342a60208701612e49565b9350604086013567ffffffffffffffff8082111561344757600080fd5b61345389838a01612e5f565b9095509350606088013591508082111561346c57600080fd5b5061347988828901612f47565b9150509295509295909350565b6000806000806060858703121561349c57600080fd5b843593506134ac60208601612e49565b9250604085013567ffffffffffffffff8111156134c857600080fd5b6134d487828801612e5f565b95989497509550505050565b600080600080608085870312156134f657600080fd5b843567ffffffffffffffff8082111561350e57600080fd5b61351a8883890161313b565b9550602087013591508082111561353057600080fd5b61353c888389016131af565b9450604087013591508082111561355257600080fd5b61355e8883890161320a565b9350606087013591508082111561357457600080fd5b508501601f8101871361358657600080fd5b61310b87823560208401612eef565b6000806000606084860312156135aa57600080fd5b83356135b581613096565b925060208401359150604084013567ffffffffffffffff8111156135d857600080fd5b6135e486828701612f47565b9150509250925092565b60006020828403121561360057600080fd5b813561155a81613096565b600080600080600060a0868803121561362357600080fd5b853561362e81613096565b9450602086013561363e81613096565b9350604086013567ffffffffffffffff8082111561365b57600080fd5b61366789838a016131af565b9450606088013591508082111561367d57600080fd5b61368989838a016131af565b9350608088013591508082111561346c57600080fd5b600080600080606085870312156136b557600080fd5b84356136c081613096565b935060208501359250604085013567ffffffffffffffff8111156134c857600080fd5b600080604083850312156136f657600080fd5b823561370181613096565b946020939093013593505050565b600080600080600060a0868803121561372757600080fd5b853561373281613096565b9450602086013561374281613096565b93506040860135925060608601359150608086013567ffffffffffffffff81111561376c57600080fd5b61347988828901612f47565b8183823760009101908152919050565b600181811c9082168061379c57607f821691505b602082108114156137bd57634e487b7160e01b600052602260045260246000fd5b50919050565b6000602082840312156137d557600080fd5b5051919050565b600081518084526020808501945080840160005b838110156138155781516001600160a01b0316875295820195908201906001016137f0565b509495945050505050565b600081518084526020808501945080840160005b8381101561381557815187529582019590820190600101613834565b600081518084526020808501808196508360051b8101915082860160005b85811015613898578284038952613886848351613057565b9885019893509084019060010161386e565b5091979650505050505050565b60a0815260006138b860a08301886137dc565b82810360208401526138ca8188613820565b905082810360408401526138de8187613850565b60608401959095525050608001529392505050565b60c08152600061390660c08301896137dc565b82810360208401526139188189613820565b9050828103604084015261392c8188613850565b60608401969096525050608081019290925260a0909101529392505050565b634e487b7160e01b600052601160045260246000fd5b600082198211156139745761397461394b565b500190565b60008282101561398b5761398b61394b565b500390565b600067ffffffffffffffff8083168185168083038211156139b3576139b361394b565b01949350505050565b60006101208b835260206001600160a01b038c16818501528160408501526139e68285018c6137dc565b915083820360608501526139fa828b613820565b915083820360808501528189518084528284019150828160051b850101838c0160005b83811015613a4b57601f19878403018552613a39838351613057565b94860194925090850190600101613a1d565b505086810360a0880152613a5f818c613850565b945050505050613a7b60c084018767ffffffffffffffff169052565b67ffffffffffffffff851660e0840152828103610100840152613a9e8185613057565b9c9b505050505050505050505050565b608081526000613ac160808301876137dc565b8281036020840152613ad38187613820565b90508281036040840152613ae78186613850565b91505082606083015295945050505050565b6000816000190483118215151615613b1357613b1361394b565b500290565b600082613b3557634e487b7160e01b600052601260045260246000fd5b500490565b84815260ff841660208201528260408201526080606082015260006111dd6080830184613057565b85815260ff8516602082015283604082015260a060608201526000613b8a60a0830185613057565b8281036080840152613b9c8185613057565b98975050505050505050565b634e487b7160e01b600052603260045260246000fd5b6000600019821415613bd257613bd261394b565b5060010190565b600060208284031215613beb57600080fd5b8151801515811461155a57600080fd5b60008251613c0d818460208701613027565b919091019291505056fe416464726573733a206c6f772d6c6576656c2063616c6c20776974682076616c7565206661696c6564a26469706673582212204dd6d527b309fe49d1cee3f52f277517ed681c973709dc668373db32657b212f64736f6c63430008080033",
  "linkReferences": {},
  "deployedLinkReferences": {}
}