{
  "address": "0xa513E6E4b8f2a923D98304ec87F64353C4D5C853",
  "abi": [
    {
      "anonymous": false,
      "inputs": [
        {
          "indexed": false,
          "internalType": "string",
          "name": "newProject",
          "type": "string"
        }
      ],
      "name": "ProjectStored",
      "type": "event"
    },
    {
      "inputs": [
        {
          "internalType": "string",
          "name": "toStore",
          "type": "string"
        }
      ],
      "name": "addProject",
      "outputs": [],
      "stateMutability": "nonpayable",
      "type": "function"
    },
    {
      "inputs": [],
      "name": "getProjects",
      "outputs": [
        {
          "internalType": "string[]",
          "name": "",
          "type": "string[]"
        }
      ],
      "stateMutability": "view",
      "type": "function"
    }
  ],
  "transactionHash": "0x329f6d351267d0cf267197dad78c96d2c41f9ac62190a2f34698b49438b3a6d4",
  "args": [],
  "numDeployments": 1,
  "solcInputHash": "05e4dc02a5ca6e267e4986ed2b42d84e",
  "bytecode": "0x608060405234801561001057600080fd5b5061045c806100206000396000f3fe608060405234801561001057600080fd5b50600436106100365760003560e01c80630ed047d41461003b578063dcc6012814610050575b600080fd5b61004e610049366004610271565b61006e565b005b6100586100e9565b604051610065919061036f565b60405180910390f35b6000805460018101825590805281516100ae917f290decd9548b62a8d60345a988386fc84ba6bc95484008f6362f93160ef3e563019060208401906101c2565b507fd75f2daf09f6de3f8db349ae301adc1b101e8b7f7c1670b529f1bfbe48aac552816040516100de91906103d1565b60405180910390a150565b60606000805480602002602001604051908101604052809291908181526020016000905b828210156101b957838290600052602060002001805461012c906103eb565b80601f0160208091040260200160405190810160405280929190818152602001828054610158906103eb565b80156101a55780601f1061017a576101008083540402835291602001916101a5565b820191906000526020600020905b81548152906001019060200180831161018857829003601f168201915b50505050508152602001906001019061010d565b50505050905090565b8280546101ce906103eb565b90600052602060002090601f0160209004810192826101f05760008555610236565b82601f1061020957805160ff1916838001178555610236565b82800160010185558215610236579182015b8281111561023657825182559160200191906001019061021b565b50610242929150610246565b5090565b5b808211156102425760008155600101610247565b634e487b7160e01b600052604160045260246000fd5b60006020828403121561028357600080fd5b813567ffffffffffffffff8082111561029b57600080fd5b818401915084601f8301126102af57600080fd5b8135818111156102c1576102c161025b565b604051601f8201601f19908116603f011681019083821181831017156102e9576102e961025b565b8160405282815287602084870101111561030257600080fd5b826020860160208301376000928101602001929092525095945050505050565b6000815180845260005b818110156103485760208185018101518683018201520161032c565b8181111561035a576000602083870101525b50601f01601f19169290920160200192915050565b6000602080830181845280855180835260408601915060408160051b870101925083870160005b828110156103c457603f198886030184526103b2858351610322565b94509285019290850190600101610396565b5092979650505050505050565b6020815260006103e46020830184610322565b9392505050565b600181811c908216806103ff57607f821691505b6020821081141561042057634e487b7160e01b600052602260045260246000fd5b5091905056fea26469706673582212202cbd863d5031fbfe9764bce1886b5cafe28ce61eed776aaefcabc83315f9445f64736f6c63430008080033",
  "devdoc": {
    "kind": "dev",
    "methods": {},
    "version": 1
  },
  "userdoc": {
    "kind": "user",
    "methods": {},
    "version": 1
  },
  "storageLayout": {
    "storage": [
      {
        "astId": 4,
        "contract": "contracts/Projects.sol:Projects",
        "label": "s_projects",
        "offset": 0,
        "slot": "0",
        "type": "t_array(t_string_storage)dyn_storage"
      }
    ],
    "types": {
      "t_array(t_string_storage)dyn_storage": {
        "base": "t_string_storage",
        "encoding": "dynamic_array",
        "label": "string[]",
        "numberOfBytes": "32"
      },
      "t_string_storage": {
        "encoding": "bytes",
        "label": "string",
        "numberOfBytes": "32"
      }
    }
  }
}